:100000000C9481000C94A9000C94A9000C940B068C
:100010000C940B060C940B060C94A9000C94A900EC
:100020000C94A9000C94A9000C94A9000C94A900AC
:100030000C94A9000C94A9000C94A9000C94A9009C
:100040000C9433010C94A9000C942D050C94070515
:100050000C94A9000C94A9000C94A9000C94A9007C
:100060000C94A9000C94A9000000000800020100F3
:1000700000030407000000000000000062756666CF
:1000800065722069732066756C6C21006E6F742038
:1000900073656E74006372656174652074637020AB
:1000A0002D204552524F5200637265617465207471
:1000B0006370202D204F4B00000000002500280019
:1000C0002B0000000000240027002A000000000090
:1000D000230026002900040404040404040402028A
:1000E00002020202030303030303010204081020B7
:1000F000408001020408102001020408102017109B
:10010000091011241FBECFEFD8E0DEBFCDBF26E01F
:10011000A8EEB3E001C01D92AD32B207E1F713E0E3
:10012000A0E0B1E0ECE5F8E202C005900D92A83E37
:10013000B107D9F710E0C0E8D0E004C02197FE0174
:100140000E94F511CF37D107C9F70E94700A0C94AD
:1001500021140C940000BF92CF92DF92EF92FF9295
:100160000F931F93CF93DF937C016B01EA01890109
:100170002417350720F48D2FE901042F182F62E78B
:1001800071E0C7010E944004D60114968D919C91A4
:100190001597C817D90748F58017910708F48C01FF
:1001A000D601ED91FC911197E00FF11FB080108204
:1001B0004D915C91BA016C0F7D1F6115710561F065
:1001C000FB0101900020E9F73197AF01461B570B67
:1001D000C7010E94000403C0C7010E94EE03D601BC
:1001E000ED91FC91E00FF11FB082C701DF91CF913B
:1001F0001F910F91FF90EF90DF90CF90BF900895E7
:100200000E94F2133FB7F8948091F1039091F203AA
:10021000A091F303B091F40326B5A89B05C02F3F2E
:1002200019F00196A11DB11D3FBFBA2FA92F982F1C
:100230008827820F911DA11DB11DBC01CD0142E097
:10024000660F771F881F991F4A95D1F708952FB71A
:10025000F8946091ED037091EE038091EF0390911B
:10026000F0032FBF08951F920F920FB60F92112423
:100270002F933F938F939F93AF93BF938091ED0301
:100280009091EE03A091EF03B091F0033091EC0355
:1002900023E0230F2D3720F40196A11DB11D05C0C9
:1002A00026E8230F0296A11DB11D2093EC03809335
:1002B000ED039093EE03A093EF03B093F0038091CE
:1002C000F1039091F203A091F303B091F40301962E
:1002D000A11DB11D8093F1039093F203A093F3034A
:1002E000B093F403BF91AF919F918F913F912F9164
:1002F0000F900FBE0F901F9018950895CF92DF9228
:10030000EF92FF920F931F93CF93DF936C017A01CB
:100310008B01C0E0D0E0CE15DF0589F0D8016D91EA
:100320008D01D601ED91FC910190F081E02DC60187
:100330000995892B11F47E0102C02196ECCFC701EB
:10034000DF91CF911F910F91FF90EF90DF90CF90B1
:100350000895FC01538D448D252F30E0842F90E0CB
:10036000821B930B541710F0CF96089501970895B0
:10037000FC01918D828D981761F0828DDF01A80FAD
:10038000B11D5D968C91928D9F5F9F73928F90E0CF
:1003900008958FEF9FEF0895FC01918D828D98173E
:1003A00031F0828DE80FF11D858D90E008958FEF7B
:1003B0009FEF0895FC01918D228D892F90E0805C44
:1003C0009F4F821B91098F739927089589E394E0C9
:1003D0000E94DA0121E0892B09F420E0822F0895A0
:1003E000FC01848DDF01A80FB11DA35ABF4F2C91D2
:1003F000848D90E001968F739927848FA689B789A1
:100400002C93A089B1898C9180648C93938D848D79
:10041000981306C00288F389E02D80818F7D808348
:100420000895EF92FF920F931F93CF93DF93EC0108
:1004300081E0888F9B8D8C8D981305C0E889F989A0
:10044000808185FD24C0F62E0B8D10E00F5F1F4FBD
:100450000F731127E02E8C8DE8120CC00FB607FC2D
:10046000FACFE889F989808185FFF5CFCE010E9416
:10047000F001F1CF8B8DFE01E80FF11DE35AFF4F24
:10048000F0820B8FEA89FB898081806207C0EE8948
:10049000FF896083E889F98980818064808381E0B5
:1004A00090E0DF91CF911F910F91FF90EF90089511
:1004B000CF93DF93EC01888D8823C9F0EA89FB890B
:1004C000808185FD05C0A889B9898C9186FD0FC002
:1004D0000FB607FCF5CF808185FFF2CFA889B989D7
:1004E0008C9185FFEDCFCE010E94F001E7CFDF9127
:1004F000CF91089580E090E0892B29F00E94E601D9
:1005000081110C9400000895209137043091380433
:100510002817390771F490913604809135049817A3
:1005200041F0E0913604F0E0EB50FC4F808190E028
:1005300008958FEF9FEF089508951F93CF93DF9352
:10054000DC015C962D913C915D972115310539F4C4
:1005500081E090E013969C938E9312973DC0519644
:10056000ED91FC91529750969C915097892F8095D0
:100570001FB75E964C915E9741FB772770F941FD5E
:100580006095F8944081772311F0492B01C04823EE
:100590004083E9012197F1F748E0508160FF02C0F4
:1005A000592B01C058235083E9012197F1F7669533
:1005B000415099F7772321F090818923808303C0EC
:1005C0008081982B90831FBF5C968D919C915D9745
:1005D0000197F1F721E030E0C901DF91CF911F9140
:1005E000089520913704309138042817390771F4A1
:1005F000809135042091360490E0805C9F4F821BEF
:10060000910960E470E00E948C11089580E090E010
:100610000895209137043091380428173907B9F428
:100620009091360480913504981789F0E091360452
:10063000F0E0EB50FC4F80812091360430E02F5FDA
:100640003F4F2F7333272093360490E008958FEFA8
:100650009FEF0895E0913704F0913804E817F90707
:1006600069F4A389B4899C918589809589238C93A9
:10067000109238041092370481E0089580E00895C4
:10068000089580E090E00895CF93DF93FC012481EA
:100690003581232B71F0FB01DC01CD91DC91608170
:1006A0007181CE010E940714009719F08C1B9D0BDD
:1006B00002C08FEF9FEFDF91CF9108950F931F93AB
:1006C000CF93DF938C01EB01FC0180819181009736
:1006D000B1F0688179816115710579F042815381AA
:1006E0002C813D814217530740F00E9400148C81F9
:1006F0009D81F8019583848313C00E9490128881A4
:100700009981F801918380838A819B81938382837D
:100710008C819D8195838483198218821B821A8221
:100720001D821C82DF91CF911F910F9108950F932D
:100730001F93CF93DF93EC0188819981009729F073
:100740002A813B812617370788F48B016F5F7F4F23
:100750000E942813009761F0998388831B830A8382
:100760002C813D81232B11F4FC01108281E001C01A
:1007700080E0DF91CF911F910F910895EF92FF924A
:100780000F931F93CF93DF9300D0CDB7DEB78C01CB
:1007900069831A82FC01E480F580FFEFEF1AFF0AFB
:1007A000B7010E949703882381F0F80120813181ED
:1007B00084819581BE016F5F7F4F820F931F0E94DE
:1007C0000014F801F582E48281E00F900F90DF9130
:1007D000CF911F910F91FF90EF900895CF93DF93EA
:1007E000EC0188819981009711F00E949012198282
:1007F00018821D821C821B821A82DF91CF9108957C
:10080000EF92FF920F931F93CF93DF93EC017B0145
:100810008A01BA010E949703811104C0CE010E948F
:10082000EE0307C01D830C83B701888199810E9464
:100830000014CE01DF91CF911F910F91FF90EF90A7
:100840000895FC01808191810C949012FB01DC01E0
:1008500011961C921E9213961C921E921297159638
:100860001C921E9214978617970749F06081718138
:100870006115710521F0448155810C94000408959F
:10088000FC0111821082138212821582148261157A
:10089000710551F0FB0101900020E9F73197AF019C
:1008A000461B570B0C94000408950F931F93CF938E
:1008B000DF93EC010E942701688779878A879B87ED
:1008C000E881F9810284F385E02DCE01099597FF37
:1008D00017C00E942701088519852A853B85DC0100
:1008E000CB01801B910BA20BB30B0C811D812E81C0
:1008F0003F8180179107A207B30710F38FEF9FEF97
:10090000DF91CF911F910F910895DC01ED91FC9142
:10091000DB0114964D915C9115976D917C9102804D
:10092000F381E02D09946115710579F0FB010190C7
:100930000020E9F73197AF01461B570BDC01ED9121
:10094000FC910280F381E02D099480E090E008950D
:100950004F925F926F927F92EF92FF920F931F934D
:10096000CF93DF93CDB7DEB7A1970FB6F894DEBF74
:100970000FBECDBF7C01FA01CB0119A2223008F4D1
:100980002AE08E010F5D1F4F422E512C612C712CDD
:10099000BF01A30192010E94A011F901CA010150F7
:1009A00011096A3014F4605D01C0695CD8016C9370
:1009B000232B242B252B61F7B801C7010E94930438
:1009C000A1960FB6F894DEBF0FBECDBFDF91CF91D9
:1009D0001F910F91FF90EF907F906F905F904F90DD
:1009E00008950F931F93CF93DF93EC010E9493041C
:1009F0008C0160E771E0CE010E949304800F911F8B
:100A0000DF91CF911F910F9108950C9493041F9241
:100A10000F920FB60F9211242F933F934F935F9332
:100A20006F937F938F939F93AF93BF93EF93FF93B6
:100A300089E394E00E94F001FF91EF91BF91AF91A3
:100A40009F918F917F916F915F914F913F912F91E6
:100A50000F900FBE0F901F9018951F920F920FB618
:100A60000F9211242F938F939F93EF93FF93E09115
:100A70004904F0914A048081E0914F04F0915004C0
:100A800082FD12C09081809152048F5F8F732091FC
:100A90005304821751F0E0915204F0E0E75CFB4F01
:100AA000958F8093520401C08081FF91EF919F91B7
:100AB0008F912F910F900FBE0F901F901895CF938D
:100AC000DF93EC019A01AB011B8E1A8E198E188EE2
:100AD0001F8A1E8A60E079E08DE390E00E94C211D7
:100AE000F9012430310518F0C901039702C081E0F3
:100AF00090E09D8F8C8F6C85663108F069C0C901CC
:100B0000969587958431910510F0439702C081E056
:100B100090E09F8B8E8B369718F0C901059702C025
:100B200081E090E0998F888FC901880F991F280F65
:100B3000391F36952795369527952D30310518F0B4
:100B40002C50310902C021E030E03B8F2A8F909178
:100B50006800683050F021E06E3008F420E081E059
:100B600001C0880F2A95EAF701C084E0892B8093A1
:100B700068009C85983038F09E3040F0963148F0FF
:100B800020E030E008C02DE630E005C02BE630E084
:100B900002C02CE630E03C8B2B8B983030F481E0A7
:100BA00001C0880F9A95EAF70EC0292F30E09E30D9
:100BB00018F42850310902C02E50310981E001C0DB
:100BC000880F2A95EAF78D8B8C8D9D8D0197F1F713
:100BD0008A8D9B8D892BE1F08091370490913804A8
:100BE0008C179D07A9F0009711F00E942A038E8DA3
:100BF0008E7F8E8F1092350410923604D093380475
:100C0000C0933704EB89FC8990818D89892B80837F
:100C1000DF91CF9108951F920F920FB60F9211247A
:100C20002F933F934F935F936F937F938F939F93F4
:100C3000AF93BF93EF93FF93E0913704F0913804A3
:100C4000309709F451C0968DA685B785858591FFAB
:100C500004C09C91892329F447C09C91892309F001
:100C600043C0A389B4899C918589809589238C93FD
:100C7000868997890197F1F7608D718DA685B78573
:100C8000558538E020E0CB010197F1F7822F90E005
:100C900095958795282F4C91452309F02068315070
:100CA00091F7868D81FD20958091350490E0019625
:100CB0008F73992730913604381749F0A091350485
:100CC000B0E0AB50BC4F2C938093350403C0868DAD
:100CD0008160868F828D938D0197F1F7A389B48906
:100CE0009C918589892B8C93FF91EF91BF91AF9156
:100CF0009F918F917F916F915F914F913F912F9134
:100D00000F900FBE0F901F9018950F931F93CF93C6
:100D1000DF938C01C0E0D0E0F801EC0FFD1F64917F
:100D2000662371F0E0913904F0913A040190F0816A
:100D3000E02D89E394E00995892B11F02196ECCF01
:100D4000CE01DF91CF911F910F910895CF93DF9343
:100D50000E948506EC0160E771E089E394E00E945F
:100D600093048C0F9D1FDF91CF9108954F925F9256
:100D70006F927F928F929F92AF92BF92CF92DF92AB
:100D8000EF92FF920F931F93CF93DF93EC015B01E0
:100D90004A016801790162E771E00E9440040E9403
:100DA00027012B013C010E942701DC01CB018419A2
:100DB0009509A609B7098C159D05AE05BF0560F517
:100DC0008091020690910306DC01ED91FC91008474
:100DD000F185E02D09951816190694F48091020604
:100DE00090910306DC01ED91FC910284F385E02DE6
:100DF0000995882329F3682FCE010E94BE03E0CF16
:100E0000B501CE010E944403019631F4B401CE0134
:100E10000E944403019639F2CE01DF91CF911F91D8
:100E20000F91FF90EF90DF90CF90BF90AF909F9089
:100E30008F907F906F905F904F9008958091020601
:100E400090910306DC01ED91FC910084F185E02D89
:100E500009951816190664F480910206909103060C
:100E6000DC01ED91FC910284F385E02D0995E6CF3C
:100E700008950F931F93CF93DF93EC018B0162E7EB
:100E800071E00E944004C8010E94550497FD08C00B
:100E90008A30910529F0682FCE010E94BE03F3CF5E
:100EA000CE01DF91CF911F910F9108958F929F9264
:100EB000AF92BF92CF92DF92EF92FF920F931F9368
:100EC000CF93DF93EC018B0169017A0162E771E056
:100ED0000E9440040E9427014B015C010E942701EF
:100EE000DC01CB0188199909AA09BB098C159D055C
:100EF000AE05BF0530F58091020690910306DC0136
:100F0000ED91FC910084F185E02D099518161906E4
:100F100094F48091020690910306DC01ED91FC911E
:100F20000284F385E02D0995882329F3682FCE01EB
:100F30000E94BE03E0CFB801CE010E944403019697
:100F400069F2CE01DF91CF911F910F91FF90EF9049
:100F5000DF90CF90BF90AF909F908F9008950F93A8
:100F60001F93CF93DF93CDB7DEB766970FB6F89494
:100F7000DEBF0FBECDBF8C019A01AB0162E771E00D
:100F8000CE010D962B8B3C8B4D8B5E8B0E944004CB
:100F9000B801CE0107960E9426042B893C894D8911
:100FA0005E89BE01695F7F4FCE0101960E945607A0
:100FB000BE016F5F7F4FCE010D960E945E03CE0192
:100FC00001960E942104CE0107960E942104B801D7
:100FD000CE010D960E9444038C01CE010D960E9415
:100FE000210481E00F3F1F4F09F480E066960FB6A1
:100FF000F894DEBF0FBECDBFDF91CF911F910F914F
:101000000895CF92DF92EF92FF920F931F93CF93A9
:10101000DF93CDB7DEB7E0970FB6F894DEBF0FBE13
:10102000CDBFBC01CE018B960E942604BE01655D3A
:101030007F4FCE0185960E94260460EF72E0CE01BC
:101040004F960E94400462E771E0CE0149960E94EB
:1010500040040E941E0764EF72E0809102069091A6
:1010600003060E940505BE01615E7F4F8091020666
:10107000909103060E9485046BED72E08091020658
:10108000909103060E940505BE016B5D7F4F809124
:101090000206909103060E94850462E073E080914D
:1010A0000206909103060E94050500910206109128
:1010B00003062AE042E853E260E070E0C8010E94C3
:1010C000A80460E771E0C8010E94930465E073E042
:1010D000CE010D960E94400465E173E0CE010796B3
:1010E0000E94400467E971E0CE0101960E9440042D
:1010F00062E771E0CE0143960E9440040E942701FE
:101100006B017C010E942701DC01CB018C199D0938
:10111000AE09BF09843F9140A105B10550F580910A
:10112000020690910306DC01ED91FC910084F185AB
:10113000E02D0995181619069CF4809102069091ED
:101140000306DC01ED91FC910284F385E02D099505
:10115000882329F3682FCE0143960E94BE03DFCF78
:10116000BE016F5F7F4FCE0143960E9444030196FC
:1011700039F1BE016D5E7F4FCE0149960E945E033C
:10118000CE0143960E942104CE0101960E942104C3
:10119000CE0107960E942104CE010D960E942104E3
:1011A00067E971E0CE0107960E944004BE01695FC5
:1011B0007F4FCE0149960E944403019659F514C011
:1011C000BE01695F7F4FCE0143960E9444030196A2
:1011D00081F6BE01635F7F4FCE0143960E944403B8
:1011E000019609F48FCFC5CF65E073E0CE0101967B
:1011F0000E944004BE016F5F7F4FCE0149960E945E
:10120000440311E0019609F410E0CE0101960E941A
:10121000210401C011E0CE0107960E942104CE01F5
:1012200049960E942104CE014F960E942104CE01CE
:1012300085960E942104CE018B960E9421041123E1
:1012400009F454C088EA90E00E94A6060E941E0796
:101250006BE173E080910206909103060E94050500
:1012600000910206109103062AE046EB50E060E090
:1012700070E0C8010E94A80460E771E0C8010E9404
:10128000930467E273E0CE0101960E94400444EFAC
:1012900051E060E070E0CE0101960E94AF07182F88
:1012A000CE0101960E942104112329F10E941E07FC
:1012B00069E273E080910206909103060E940505A1
:1012C00060EE73E0CE0101960E94400444EF51E0CD
:1012D00060E070E0CE0101960E94AF07182FCE01AA
:1012E00001960E94210411110DC005C085E990E00E
:1012F0000E94A60604C08CE890E00E9485068FEF4D
:101300009FEF59C00E9427016B017C0100E010E0B3
:101310000E942701DC01CB018C199D09AE09BF0990
:10132000843F9140A105B105D0F5809102069091CE
:101330000306DC01ED91FC910084F185E02D099517
:1013400018161906B4F40C32B1E01B0789F180912C
:10135000020690910306DC01ED91FC910284F38575
:10136000E02D0995F801EA52FB4F80830F5F1F4F74
:10137000DCCF0C3281E0180759F68091020690917B
:101380000306DC01ED91FC910084F185E02D0995C7
:10139000892B09F4BDCF8CE790E00E94A60666ED8C
:1013A00074E089E394E00E94F10486ED94E003C0C8
:1013B0000CE211E0E2CFE0960FB6F894DEBF0FBE6C
:1013C000CDBFDF91CF911F910F91FF90EF90DF90F4
:1013D000CF90089590E0FC01E859FF4F3491FC0153
:1013E000E651FF4F2491FC01EA52FF4FE491EE23B6
:1013F00009F43BC0332339F1333091F038F4313004
:10140000A9F0323001F584B58F7D12C0373091F0EC
:101410003830A1F03430B9F4809180008F7D03C062
:10142000809180008F77809380000DC084B58F7786
:1014300084BD09C08091B0008F7703C08091B00057
:101440008F7D8093B000F0E0EE0FFF1FE854FF4F58
:10145000A591B4918FB7F894EC91611103C02095D8
:101460002E2301C02E2B2C938FBF08958F929F9215
:10147000AF92BF92CF92DF92EF92FF926B017C010D
:101480000E9402014B015C01C114D104E104F1048A
:10149000F1F00E940201DC01CB0188199909AA0927
:1014A000BB09883E9340A105B10570F321E0C21A43
:1014B000D108E108F10888EE880E83E0981EA11C8F
:1014C000B11CC114D104E104F10419F7DDCFFF9080
:1014D000EF90DF90CF90BF90AF909F908F90089546
:1014E000CF93DF93CDB7DEB7C654D1090FB6F894CA
:1014F000DEBF0FBECDBF789484B5826084BD84B555
:10150000816084BD85B5826085BD85B5816085BDFE
:1015100080916E00816080936E00109281008091B6
:10152000810082608093810080918100816080933E
:101530008100809180008160809380008091B10063
:1015400084608093B1008091B00081608093B0008E
:1015500080917A00846080937A0080917A00826022
:1015600080937A0080917A00816080937A008091E4
:101570007A00806880937A001092C10061E08CE06C
:101580000E94EA0961E08DE00E94EA09E0914904C5
:10159000F0914A0482E08083E0914504F091460492
:1015A0001082E0914704F091480400E1008310921A
:1015B0005104E0914D04F0914E0486E08083E09167
:1015C0004B04F0914C04808180618083E0914B0456
:1015D000F0914C04808188608083E0914B04F0910D
:1015E0004C04808180688083E0914B04F0914C042E
:1015F00080818F7D80836AE371E089E394E00E94BB
:10160000F10460E471E0CE01CB960E94400461E5F4
:1016100071E0CE018F5B9F4F0E9440040E941E0725
:101620000E942701E6E0F1E0DE01119601900D92A3
:101630000A95E1F795E0A92EB12CCE0101967C0127
:10164000F70141915191619171917F018091020661
:10165000909103060E945F0561E671E080910206A9
:10166000909103060E94F10464E170E080E090E054
:101670000E94360A8091020690910306DC01ED91EA
:10168000FC910084F185E02D0995892BC9F26091C8
:10169000020670910306CE0147960E94390767E95A
:1016A00071E0CE0141960E944004BE016F5E7F4F03
:1016B000CE0147960E9444034C01CE0141960E9400
:1016C00021048920809471F06FE070E080E090E068
:1016D0000E94360ACE0147960E94210485E0882E9A
:1016E000912C50C0CE0147960E942104C3CF609137
:1016F000020670910306CE014D960E94390767E9F4
:1017000071E0CE0147960E944004BE01695E7F4FA2
:10171000CE014D960E944403019609F053C061E644
:1017200071E0CE0141960E944004BE016F5E7F4F82
:10173000CE014D960E944403FF24F394019609F4D0
:10174000F12CCE0141960E942104CE0147960E94C1
:101750002104F1103AC0CE014D960E9421048091DF
:10176000020690910306DC01ED91FC910084F18565
:10177000E02D0995892B09F0BACFB1E08B1A9108B9
:1017800009F490C064E671E080910206909103062E
:101790000E940505E0900206F09003062AE040E86A
:1017A00055E260E070E0C7010E94A80460E771E0C4
:1017B000C7010E94930464E170E080E090E00E9421
:1017C000360ACDCFFF24F394C0CF40E855E260E065
:1017D00070E080910206909103060E945F0564E626
:1017E00070E080E090E00E94360ACE014D960E94A3
:1017F000210463E771E089E394E00E94F10462E769
:1018000071E0CE018F960E9440040E941E0768E896
:1018100071E080910206909103060E94F10463E951
:1018200071E0CE0189960E9440046AE971E0CE0120
:1018300083960E94400467E971E0CE014D960E94B4
:10184000400462E771E0CE0147960E944004BE0169
:10185000635E7F4FCE0101960E94260428EE33E09E
:1018600040E050E0BE016F5F7F4FCE0141960E9485
:101870005607BE016F5E7F4FCE0147960E945E0302
:10188000CE0141960E942104CE0101960E942104BE
:10189000BE01635E7F4FCE0147960E9444030196CE
:1018A00051F441C0E1E0AE1AB10809F0C6CEF12C06
:1018B0006FEB71E0FDC2BE016D5D7F4FCE014796BB
:1018C0000E9444034C01990FAA08BB08BE01675D42
:1018D0007F4FCE0147960E944403AFEF8A169A06C7
:1018E000AA06BA0601F18F3FBFEF9B07E1F02FA1D7
:1018F00038A5B501A401420F531F611D711D9C0144
:10190000BE01695E7F4FCE0101960E94AB00BE0111
:101910006F5F7F4FCE018F960E945E03CE010196CE
:101920000E94210409C040E050E062E771E0CE016E
:101930008F960E940004F12CCE0147960E9421044C
:10194000CE014D960E942104CE0183960E9421046F
:10195000CE0189960E942104FF2049F08FA598A905
:10196000009719F00E94191101C060E0162FCE01F6
:101970008F960E942104FF2009F49FC2113009F4C0
:10198000E4C062E771E0CE014D960E9440040E94DF
:101990001E0763EA71E080910206909103060E949F
:1019A000050500910206109103062AE041E050E08F
:1019B00060E070E0C8010E94A80460E771E0C8011F
:1019C0000E9493046EEA71E0CE0141960E944004A9
:1019D00067E971E0CE0101960E94400408EE13E031
:1019E00020E030E0AE014F5E5F4FBE016F5F7F4F82
:1019F000CE0147960E94B606BE01695E7F4FCE01BA
:101A00004D960E945E03CE0147960E942104CE01AE
:101A100001960E942104CE0141960E94210467E9AB
:101A200071E0CE0141960E944004BE016F5E7F4F7F
:101A3000CE014D960E9444030196B1F46EEA71E026
:101A4000CE0101960E944004BE016F5F7F4FCE0120
:101A50004D960E94440311E0019609F410E0CE0176
:101A600001960E94210401C01F2DCE0141960E94C3
:101A70002104CE014D960E942104112309F41DC2B8
:101A80000E941E0768EB71E08091020690910306A8
:101A90000E94F10467E971E0CE0101960E944004C2
:101AA00048EE53E060E070E0CE0101960E94AF077F
:101AB000182FCE0101960E942104112309F4FDC1C3
:101AC00060ED77E080E090E00E94360A0E942701F6
:101AD0004B015C010E942701DC01CB0188199909A7
:101AE000AA09BB09883B9B40A105B10508F0E5C1E7
:101AF0000E941E0761E671E0809102069091030644
:101B00000E94F10467E971E0CE0101960E94400451
:101B100048EE53E060E070E0CE0101960E94AF070E
:101B2000182FCE0101960E942104112339F06CED8B
:101B300075E080E090E00E94360A07C064E670E03D
:101B400080E090E00E94360AC5CF6AEB72E089E33C
:101B500094E00E94F104BE01655C7F4FCE018F9638
:101B60000E942604BE016F5B7F4FCE01C5960E9486
:101B70002604BE01615D7F4FCE0189960E94260436
:101B8000BE016B5C7F4FCE0183960E94260462E704
:101B900071E0CE014D960E9440040E941E0760ED48
:101BA00072E080910206909103060E940505BE0135
:101BB0006D5D7F4F80910206909103060E9485041F
:101BC0006BED72E080910206909103060E9405057C
:101BD000BE01675D7F4F80910206909103060E94CF
:101BE00085046DED72E080910206909103060E94DB
:101BF000F1046FED72E0CE0141960E94400467E966
:101C000071E0CE0101960E94400400E117E220E05D
:101C100030E0AE014F5E5F4FBE016F5F7F4FCE0180
:101C200047960E94B606BE01695E7F4FCE014D9673
:101C30000E945E03CE0147960E942104CE010196C8
:101C40000E942104CE0141960E94210467E971E0BF
:101C5000CE0101960E944004BE016F5F7F4FCE010E
:101C60004D960E9444038C01CE0101960E942104EE
:101C7000CE014D960E942104CE0183960E9421043C
:101C8000CE0189960E942104CE01C5960E942104AE
:101C9000CE018F960E9421040F3F1F4F09F4AEC161
:101CA00063ED71E089E394E00E94050562E771E06D
:101CB000CE014D960E9440040E941E076BEE71E01B
:101CC00080910206909103060E94F10462E370E0A5
:101CD00080E090E00E94360A80910206909103060F
:101CE000DC01ED91FC910084F185E02D0995181639
:101CF00019060CF07AC16091020670910306CE01BC
:101D000001960E943907BE016F5F7F4FCE014D964D
:101D10000E945E03CE0101960E94210464EF71E0EF
:101D2000CE0101960E944004BE016F5F7F4FCE013D
:101D30004D960E9444038C01CE0101960E9421041D
:101D40000F3F1F4F49F264E670E080E090E00E9490
:101D5000360AA9A0BAA092E0A91AB10864EF71E00E
:101D6000CE0141960E944004BE016F5E7F4FCE01BE
:101D70004D960E944403AC014C5F5F4F9501BE013C
:101D8000635E7F4FCE0147960E94AB0067EF71E024
:101D9000CE0101960E9440048B8D9C8D0F89188D79
:101DA000AD80BE80A80EB91E0115110509F42CC125
:101DB000892B09F007C1BE016F5F7F4FCE0183966B
:101DC0000E942604CE0101960E942104CE0147966E
:101DD0000E942104CE0141960E942104CE014D961D
:101DE0000E9421046BA17CA189E394E00E94F1048C
:101DF000CE0183960E9421040E941E0762E771E0D3
:101E0000CE0141960E94400463E172E08091020697
:101E1000909103060E94F10462E370E080E090E09C
:101E20000E94360A8091020690910306DC01ED9132
:101E3000FC910084F185E02D0995181619060CF027
:101E4000DBC06091020670910306CE0101960E94EC
:101E50003907BE016F5F7F4FCE0141960E945E033E
:101E6000CE0101960E94210467E971E0CE0101963E
:101E70000E944004BE016F5F7F4FCE0141960E94D9
:101E800044038C01CE0101960E9421040F3F1F4F95
:101E900049F264E670E080E090E00E94360ACE01EC
:101EA00041960E942104FF2009F4ABC06DE372E06B
:101EB00089E394E00E94F10407C06CE672E089E3D4
:101EC00094E00E94F104F12CCE018F5B9F4F0E94A1
:101ED0002104CE01CB960E942104F1103CC063E99D
:101EE00072E089E394E00E94F104FFCFCF018E19E4
:101EF0009F092191222309F445C02332B9F7F70144
:101F0000E80FF91F2181022E000C330B20533109F9
:101F1000F701CF018E199F0941914423B1F143325A
:101F2000C1F7F701E80FF91FE3800E2C000CFF0842
:101F3000B0E3EB1AF1088091EA039091EB032817C4
:101F4000390731F58091E8039091E903E816F90625
:101F500061F50E947A0263E276E0CE0101960E946A
:101F60002604CE0101960E9401087C01CE01019653
:101F70000E94210460EA7FE080E090E00E94360A3F
:101F8000F701B4CF20E030E0C3CFE12CF12CD3CF68
:101F90003093EB032093EA03232B11F460E001C09C
:101FA00061E08CE00E94EA09CDCFF092E903E09273
:101FB000E803EF2811F460E001C061E08DE00E94C9
:101FC000EA09C7CFB501CE0101960E949703882385
:101FD000D9F029813A818D819E81B801820F931FAA
:101FE0000E940014BE82AD82E6CE6CEF71E0CE019D
:101FF00083960E944004F2CEF12C51CF6FE172E043
:102000005ECF6CE472E054CFCE0101960E94EE03E5
:10201000D2CE8CE291E0909305068093040684E092
:1020200096E00E942A0383E296E00C942104CF926A
:10203000DF92EF92FF92CF93DF9310923C041092C5
:102040003B0468EEC62E63E0D62EE12CF12CC09244
:102050003D04D0923E04E0923F04F09240048AE1B5
:1020600091E090933A048093390485EC90E090934A
:1020700046048093450484EC90E090934804809358
:10208000470480EC90E090934A048093490481ECEB
:1020900090E090934C0480934B0482EC90E09093FA
:1020A0004E0480934D0486EC90E09093500480930E
:1020B0004F04109252041092530410925404109240
:1020C000550464EE72E083E296E00E9440041092B0
:1020D000070610920606C0920806D0920906E09202
:1020E0000A06F0920B068CE291E09093050680932D
:1020F000040610921B0610921A0610921D061092EA
:102100001C0610921F0610921E06109221061092B5
:102110002006609122066E7F6D7F60932206669591
:10212000617081E068278BE00E94EA09E5EFF0E04A
:102130002491E1EEF0E08491882399F090E0880FFB
:10214000991FFC01EE53FF4FA591B491FC01E85497
:10215000FF4F859194918FB7F894EC91E22BEC931B
:102160008FBFE5EFF0E0E491E0931406E1EEF0E0DC
:10217000E491F0E0EE0FFF1FE854FF4F859194913A
:102180009093160680931506E4EFF0E02491E0EEBC
:10219000F0E084918823C1F090E0880F991FFC0142
:1021A000EE53FF4FC591D491FC01E854FF4FA59128
:1021B000B4919FB7F8948881E22FE0958E238883AD
:1021C0008C91E823EC939FBF8091220681FD04C08F
:1021D00061E08AE00E94EA098AE080931006E4EF59
:1021E000F0E0E491E0931106E0EEF0E0E491F0E03D
:1021F000EE0FFF1FE453FF4F8591949190931306C8
:1022000080931206E6EDF4E08CE291E0DF019C01A0
:102210001D9221503040E1F784E096E09093030650
:1022200080930206DF91CF91FF90EF90DF90CF90E7
:1022300008951F93FC0199278827BC01E894119108
:102240001032E9F3193010F01E30C8F31B3251F090
:102250001D3249F4689406C00E944011610F711D3F
:10226000811D911D119110531A30B0F33EF49095D9
:102270008095709561957F4F8F4F9F4F1F91089567
:10228000592F482F372F262F660F771F881F991F2A
:10229000660F771F881F991F620F731F841F951F7A
:1022A000660F771F881F991F08952F923F924F92B4
:1022B0005F926F927F928F929F92AF92BF92CF92D6
:1022C000DF92EF92FF920F931F93CF93DF93CDB7DF
:1022D000DEB7CA1BDB0B0FB6F894DEBF0FBECDBF57
:1022E00009942A88398848885F846E847D848C8428
:1022F0009B84AA84B984C884DF80EE80FD800C8131
:102300001B81AA81B981CE0FD11D0FB6F894DEBF13
:102310000FBECDBFED01089597FB072E16F4009474
:1023200007D077FD09D00E94E11107FC05D03EF4EB
:10233000909581959F4F0895709561957F4F089571
:10234000A1E21A2EAA1BBB1BFD010DC0AA1FBB1FB9
:10235000EE1FFF1FA217B307E407F50720F0A21B2B
:10236000B30BE40BF50B661F771F881F991F1A9498
:1023700069F760957095809590959B01AC01BD01C2
:10238000CF010895052E97FB1EF400940E94D911E9
:1023900057FD07D00E94A01107FC03D04EF40C9407
:1023A000D91150954095309521953F4F4F4F5F4F34
:1023B000089590958095709561957F4F8F4F9F4FB1
:1023C0000895AA1BBB1B51E107C0AA1FBB1FA6177C
:1023D000B70710F0A61BB70B881F991F5A95A9F7CE
:1023E00080959095BC01CD010895EE0FFF1F0590DB
:1023F000F491E02D0994CF93DF938230910510F48E
:1024000082E090E0E0912B06F0912C0620E030E095
:10241000C0E0D0E0309711F1408151814817590751
:10242000C0F04817590761F482819381209719F011
:102430009B838A832BC090932C0680932B0626C007
:102440002115310519F04217530718F49A01BE01FE
:10245000DF01EF010280F381E02DDCCF2115310592
:1024600009F1281B390B2430310590F412968D9117
:102470009C9113976115710521F0FB019383828371
:1024800004C090932C0680932B06FD01329644C025
:10249000FD01E20FF31F81939193225031092D9397
:1024A0003C933AC02091290630912A06232B41F40F
:1024B000209102013091030130932A0620932906CE
:1024C00020910001309101012115310541F42DB712
:1024D0003EB74091040150910501241B350BE0915A
:1024E0002906F0912A06E217F307A0F42E1B3F0BF2
:1024F0002817390778F0AC014E5F5F4F2417350776
:1025000048F04E0F5F1F50932A064093290681938F
:10251000919302C0E0E0F0E0CF01DF91CF91089508
:102520000F931F93CF93DF93009709F48CC0FC01A6
:1025300032971382128200912B0610912C060115FE
:10254000110581F420813181820F931F209129068A
:1025500030912A062817390779F5F0932A06E09377
:10256000290671C0D80140E050E0AE17BF0750F413
:1025700012962D913C911397AD012115310509F16A
:10258000D901F3CF9D01DA01338322836081718108
:10259000860F971F8217930769F4EC012881398110
:1025A000260F371F2E5F3F4F318320838A819B8107
:1025B00093838283452B29F4F0932C06E0932B061A
:1025C00042C01396FC93EE931297ED0149915991F5
:1025D0009E01240F351FE217F30771F4808191816A
:1025E000840F951F029611969C938E9382819381FE
:1025F00013969C938E931297E0E0F0E0D801129628
:102600008D919C911397009719F0F8018C01F6CFEA
:102610008D919C9198012E5F3F4F820F931F2091C7
:10262000290630912A062817390769F4309729F4CA
:1026300010922C0610922B0602C013821282109365
:102640002A0600932906DF91CF911F910F910895DB
:10265000A0E0B0E0EEE2F3E10C945911EC01009738
:1026600021F4CB010E94FB11B8C0FC01E60FF71F5B
:102670009C0122503109E217F30708F4ACC0D901DC
:102680000D911C91119706171707B0F00530110531
:1026900008F49FC0C80104978617970708F499C0EB
:1026A00002501109061B170B019311936D937C9334
:1026B000CF010E9490128DC05B01A01AB10A4C019B
:1026C000800E911EA0912B06B0912C0640E050E0A8
:1026D000E12CF12C109709F44AC0A815B905D1F5E1
:1026E0006D907C901197630182E0C80ED11CCA14D2
:1026F000DB0480F1A3014A195B096A0182E0C80E7C
:10270000D11C1296BC9012971396AC91B5E0CB16E3
:10271000D10440F0B282A38351834083D9016D93E9
:102720007C930AC00E5F1F4FC301800F911FF901F8
:1027300091838083EB2DFA2FE114F10431F0D7015E
:102740001396FC93EE93129744C0F0932C06E093FB
:102750002B063FC08D919C9111974817590708F49B
:10276000AC017D0112960D90BC91A02DB3CF80914C
:10277000290690912A0688159905E1F4461757070E
:10278000C8F48091000190910101009741F48DB748
:102790009EB74091040150910501841B950BE817E9
:1027A000F907C8F4F0932A06E0932906F90171832A
:1027B00060830FC0CB010E94FB117C01009759F090
:1027C000A801BE010E94F713CE010E949012C7011A
:1027D00004C0CE0102C080E090E0CDB7DEB7EEE0ED
:1027E0000C94751181E090E0F8940C942114FB0195
:1027F000DC0102C001900D9241505040D8F708957D
:10280000FB01DC0101900D920020E1F70895FB012E
:1028100051915523A9F0BF01DC014D91451741119C
:10282000E1F759F4CD010190002049F04D91401598
:102830004111C9F3FB014111EFCF81E090E0019715
:10284000089510E0C0E8D0E004C0FE010E94F51138
:0C2850002196C138D107C9F7F894FFCFDA
:10285C0000002D06800080250000004B000000E1E8
:10286C00000000C201000000000011027E01A9015D
:10287C005802DA01B801CC01000000009D027E0173
:10288C0041039C02F10209038402426567696E00F0
:10289C00494E4E424F58323630393030303631375F
:1028AC000048312054656C656B6F6D206563616405
:1028BC000041540041542B43494F424155443D0083
:1028CC000D0A004261756472617465207365742031
:1028DC00737563636573730041542B43574D4F44B9
:1028EC00453F000D0A0D0A4F4B002B43574D4F44EB
:1028FC00453A0041542B43574D4F44453D006E6FB4
:10290C00206368616E67650041542B52535400423A
:10291C006175647261746520736574206661696C9D
:10292C006564004A6F696E696E672041502073754B
:10293C00636365737366756C2C200041542B43499B
:10294C004653520049500049503A2000436F756C71
:10295C00646E277420676574204950206164726529
:10296C0073730041542B4349504D55583D30004A28
:10297C006F696E204150206661696C7572652C2000
:10298C00526573657420426F617264210053696EE5
:10299C00676C65204D6F6465204F4B0053696E6703
:1029AC006C65204D6F6465204572726F722C2052DD
:1029BC006573657420426F61726421005374617495
:1029CC00696F6E202B20736F66744150202D20454B
:1029DC0072726F722C20526573657420426F617233
:1029EC006421005769666920496E697420666169C3
:1029FC006C65642E20436865636B20636F6E66693B
:102A0C006775726174696F6E2E0053746174696FAF
:102A1C006E202B20736F66744150202D204F4B007D
:102A2C0041542B43574A41503D2200222C22004650
:102A3C0041494C003139322E3136382E312E370087
:102A4C005443500041542B43495053544152543D2C
:102A5C002200222C00414C524541445920434F4EF8
:102A6C004E454354004552524F520041542B43495A
:102A7C005053454E443D003E00504F5354202F7050
:102A8C006F7765722F736572766963652F706F77D8
:102A9C0065722F706F737420485454502F312E313F
:102AAC000D0A486F73743A2068696464656E2D74FE
:102ABC006F722D31323035342E6865726F6B7561E3
:102ACC0070702E636F6D0D0A436F6E6E6563746963
:102ADC006F6E3A20636C6F73650D0A436F6E74658D
:102AEC006E742D547970653A206170706C696361F5
:102AFC0074696F6E2F6A736F6E0D0A436F6E746517
:102B0C006E742D4C656E6774683A2033300D0A0D67
:102B1C000A7B22706172616D31223A202234222CA0
:102B2C002022706172616D32223A202235227D00A2
:082B3C0053454E44204F4B00AD
:00000001FF
