:100000000C9481000C94A9000C94A9000C94900508
:100010000C9490050C9490050C94A9000C94A900E4
:100020000C94A9000C94A9000C94A9000C94A900AC
:100030000C94A9000C94A9000C94A9000C94A9009C
:100040000C94AE080C94A9000C94B2040C948C048B
:100050000C94A9000C94A9000C94A9000C94A9007C
:100060000C94A9000C94A9000000000800020100F3
:1000700000030407000000000000000062756666CF
:1000800065722069732066756C6C21006E6F742038
:1000900073656E74006372656174652074637020AB
:1000A0002D204552524F5200637265617465207471
:1000B0006370202D204F4B00000000002500280019
:1000C0002B0000000000240027002A000000000090
:1000D000230026002900040404040404040402028A
:1000E00002020202030303030303010204081020B7
:1000F0004080010204081020010204081020C40FEF
:10010000B60F11241FBECFEFD8E0DEBFCDBF25E074
:10011000A0E9B3E001C01D92A13DB207E1F713E0F1
:10012000A0E0B1E0E6EBF7E202C005900D92A03945
:10013000B107D9F710E0C0E8D0E004C02197FE0174
:100140000E94A211CF37D107C9F70E94740A0C94FC
:10015000CE130C940000BF92CF92DF92EF92FF92E9
:100160000F931F93CF93DF937C016B01EA01890109
:100170002417350720F48D2FE901042F182F6AE783
:1001800073E0C7010E94C503D60114968D919C911E
:100190001597C817D90748F58017910708F48C01FF
:1001A000D601ED91FC911197E00FF11FB080108204
:1001B0004D915C91BA016C0F7D1F6115710561F065
:1001C000FB0101900020E9F73197AF01461B570B67
:1001D000C7010E94850303C0C7010E947303D601B3
:1001E000ED91FC91E00FF11FB082C701DF91CF913B
:1001F0001F910F91FF90EF90DF90CF90BF900895E7
:100200000E949F130895CF92DF92EF92FF920F9377
:100210001F93CF93DF936C017A018B01C0E0D0E094
:10022000CE15DF0589F0D8016D918D01D601ED91D4
:10023000FC910190F081E02DC6010995892B11F404
:100240007E0102C02196ECCFC701DF91CF911F91B3
:100250000F91FF90EF90DF90CF900895FC01538DA8
:10026000448D252F30E0842F90E0821B930B541790
:1002700010F0CF96089501970895FC01918D828D1D
:10028000981761F0828DDF01A80FB11D5D968C91EA
:10029000928D9F5F9F73928F90E008958FEF9FEFF5
:1002A0000895FC01918D828D981731F0828DE80FB1
:1002B000F11D858D90E008958FEF9FEF0895FC016B
:1002C000918D228D892F90E0805C9F4F821B910938
:1002D0008F73992708958DED93E00E945F0121E0CF
:1002E000892B09F420E0822F0895FC01848DDF0121
:1002F000A80FB11DA35ABF4F2C91848D90E0019699
:100300008F739927848FA689B7892C93A089B18987
:100310008C9180648C93938D848D981306C0028891
:10032000F389E02D80818F7D80830895EF92FF9285
:100330000F931F93CF93DF93EC0181E0888F9B8D08
:100340008C8D981305C0E889F989808185FD24C0CA
:10035000F62E0B8D10E00F5F1F4F0F731127E02E4D
:100360008C8DE8120CC00FB607FCFACFE889F9892A
:10037000808185FFF5CFCE010E947501F1CF8B8D75
:10038000FE01E80FF11DE35AFF4FF0820B8FEA895F
:10039000FB898081806207C0EE89FF896083E889DC
:1003A000F98980818064808381E090E0DF91CF9142
:1003B0001F910F91FF90EF900895CF93DF93EC0181
:1003C000888D8823C9F0EA89FB89808185FD05C075
:1003D000A889B9898C9186FD0FC00FB607FCF5CFAF
:1003E000808185FFF2CFA889B9898C9185FFEDCFF7
:1003F000CE010E947501E7CFDF91CF91089580E093
:1004000090E0892B29F00E946B0181110C9400006F
:1004100008952091D2033091D3032817390771F43E
:100420009091D1038091D003981741F0E091D103CE
:10043000F0E0E057FC4F808190E008958FEF9FEF50
:10044000089508951F93CF93DF93DC015C962D915F
:100450003C915D972115310539F481E090E01396C8
:100460009C938E9312973DC05196ED91FC915297BB
:1004700050969C915097892F80951FB75E964C910E
:100480005E9741FB772770F941FD6095F8944081B4
:10049000772311F0492B01C048234083E9012197BC
:1004A000F1F748E0508160FF02C0592B01C058238A
:1004B0005083E9012197F1F76695415099F7772329
:1004C00021F090818923808303C08081982B9083C1
:1004D0001FBF5C968D919C915D970197F1F721E08C
:1004E00030E0C901DF91CF911F9108952091D2038F
:1004F0003091D3032817390771F48091D0032091EC
:10050000D10390E0805C9F4F821B910960E470E012
:100510000E943911089580E090E008952091D2035F
:100520003091D30328173907B9F49091D103809102
:10053000D003981789F0E091D103F0E0E057FC4F29
:1005400080812091D10330E02F5F3F4F2F733327FD
:100550002093D10390E008958FEF9FEF0895E091ED
:10056000D203F091D303E817F90769F4A389B4899A
:100570009C918589809589238C931092D303109246
:10058000D20381E0089580E00895089580E090E02E
:100590000895CF93DF93FC0124813581232B71F0E3
:1005A000FB01DC01CD91DC9160817181CE010E9463
:1005B000B413009719F08C1B9D0B02C08FEF9FEFB7
:1005C000DF91CF9108950F931F93CF93DF938C0109
:1005D000EB01FC01808191810097B1F06881798104
:1005E0006115710579F0428153812C813D8142175B
:1005F000530740F00E94AD138C819D81F8019583D3
:10060000848313C00E943D1288819981F8019183EF
:1006100080838A819B81938382838C819D81958352
:100620008483198218821B821A821D821C82DF91A8
:10063000CF911F910F9108950F931F93CF93DF9345
:10064000EC0188819981009729F02A813B81261746
:10065000370788F48B016F5F7F4F0E94D512009798
:1006600061F0998388831B830A832C813D81232B2E
:1006700011F4FC01108281E001C080E0DF91CF9194
:100680001F910F910895EF92FF920F931F93CF93B5
:10069000DF9300D0CDB7DEB78C0169831A82FC01ED
:1006A000E480F580FFEFEF1AFF0AB7010E941C03F8
:1006B000882381F0F8012081318184819581BE01F8
:1006C0006F5F7F4F820F931F0E94AD13F801F58279
:1006D000E48281E00F900F90DF91CF911F910F91F5
:1006E000FF90EF900895CF93DF93EC01888199817B
:1006F000009711F00E943D12198218821D821C82FF
:100700001B821A82DF91CF910895EF92FF920F938F
:100710001F93CF93DF93EC017B018A01BA010E9402
:100720001C03811104C0CE010E94730307C01D8306
:100730000C83B701888199810E94AD13CE01DF91AE
:10074000CF911F910F91FF90EF900895FC01808150
:1007500091810C943D12FB01DC0111961C921E92BA
:1007600013961C921E92129715961C921E92149725
:100770008617970749F0608171816115710521F035
:10078000448155810C9485030895FC0111821082E7
:1007900013821282158214826115710551F0FB01DA
:1007A00001900020E9F73197AF01461B570B0C94DD
:1007B000850308950F931F93CF93DF93EC010E945D
:1007C000B506688779878A879B87E881F9810284E3
:1007D000F385E02DCE01099597FF17C00E94B5065D
:1007E000088519852A853B85DC01CB01801B910B8F
:1007F000A20BB30B0C811D812E813F8180179107C5
:10080000A207B30710F38FEF9FEFDF91CF911F91F6
:100810000F910895DC01ED91FC91DB0114964D914F
:100820005C9115976D917C910280F381E02D099484
:100830006115710579F0FB0101900020E9F731970E
:10084000AF01461B570BDC01ED91FC910280F38157
:10085000E02D099480E090E008954F925F926F92AE
:100860007F92EF92FF920F931F93CF93DF93CDB7B9
:10087000DEB7A1970FB6F894DEBF0FBECDBF7C01E7
:10088000FA01CB0119A2223008F42AE08E010F5D93
:100890001F4F422E512C612C712CBF01A3019201DC
:1008A0000E944D11F901CA01015011096A3014F476
:1008B000605D01C0695CD8016C93232B242B252B30
:1008C00061F7B801C7010E941804A1960FB6F89409
:1008D000DEBF0FBECDBFDF91CF911F910F91FF9073
:1008E000EF907F906F905F904F9008950F931F93BC
:1008F000CF93DF93EC010E9418048C0168E773E04A
:10090000CE010E941804800F911FDF91CF911F919B
:100910000F9108950C9418041F920F920FB60F9226
:1009200011242F933F934F935F936F937F938F93F4
:100930009F93AF93BF93EF93FF938DED93E00E944E
:100940007501FF91EF91BF91AF919F918F917F9131
:100950006F915F914F913F912F910F900FBE0F902C
:100960001F9018951F920F920FB60F9211242F937C
:100970008F939F93EF93FF93E091ED03F091EE033C
:100980008081E091F303F091F40382FD12C0908125
:100990008091F6038F5F8F732091F703821751F0D8
:1009A000E091F603F0E0E352FC4F958F8093F6035D
:1009B00001C08081FF91EF919F918F912F910F90B6
:1009C0000FBE0F901F901895CF93DF93EC019A0103
:1009D000AB011B8E1A8E198E188E1F8A1E8A60E03C
:1009E00079E08DE390E00E946F11F9012430310528
:1009F00018F0C901039702C081E090E09D8F8C8FB1
:100A00006C85663108F069C0C90196958795843177
:100A1000910510F0439702C081E090E09F8B8E8B90
:100A2000369718F0C901059702C081E090E0998FD0
:100A3000888FC901880F991F280F391F3695279570
:100A4000369527952D30310518F02C50310902C00C
:100A500021E030E03B8F2A8F90916800683050F0A1
:100A600021E06E3008F420E081E001C0880F2A9573
:100A7000EAF701C084E0892B809368009C85983058
:100A800038F09E3040F0963148F020E030E008C069
:100A90002DE630E005C02BE630E002C02CE630E069
:100AA0003C8B2B8B983030F481E001C0880F9A95F5
:100AB000EAF70EC0292F30E09E3018F42850310993
:100AC00002C02E50310981E001C0880F2A95EAF753
:100AD0008D8B8C8D9D8D0197F1F78A8D9B8D892B48
:100AE000E1F08091D2039091D3038C179D07A9F078
:100AF000009711F00E94AF028E8D8E7F8E8F109224
:100B0000D0031092D103D093D303C093D203EB89C7
:100B1000FC8990818D89892B8083DF91CF91089505
:100B20001F920F920FB60F9211242F933F934F9362
:100B30005F936F937F938F939F93AF93BF93EF9345
:100B4000FF93E091D203F091D303309709F451C0A1
:100B5000968DA685B785858591FF04C09C918923D4
:100B600029F447C09C91892309F043C0A389B48923
:100B70009C918589809589238C9386899789019793
:100B8000F1F7608D718DA685B785558538E020E039
:100B9000CB010197F1F7822F90E095958795282F4B
:100BA0004C91452309F02068315091F7868D81FDE5
:100BB00020958091D00390E001968F739927309112
:100BC000D103381749F0A091D003B0E0A057BC4F33
:100BD0002C938093D00303C0868D8160868F828D95
:100BE000938D0197F1F7A389B4899C918589892B0D
:100BF0008C93FF91EF91BF91AF919F918F917F91D6
:100C00006F915F914F913F912F910F900FBE0F9079
:100C10001F9018953FB7F8948091D9039091DA030B
:100C2000A091DB03B091DC0326B5A89B05C02F3F44
:100C300019F00196A11DB11D3FBFBA2FA92F982F02
:100C40008827820F911DA11DB11DBC01CD0142E07D
:100C5000660F771F881F991F4A95D1F7089590E076
:100C6000FC01E859FF4F3491FC01E651FF4F2491FC
:100C7000FC01EA52FF4FE491EE2309F43BC0332319
:100C800039F1333091F038F43130A9F0323001F5D8
:100C900084B58F7D12C0373091F03830A1F03430F8
:100CA000B9F4809180008F7D03C0809180008F77A0
:100CB000809380000DC084B58F7784BD09C080917A
:100CC000B0008F7703C08091B0008F7D8093B0001B
:100CD000F0E0EE0FFF1FE854FF4FA591B4918FB7DE
:100CE000F894EC91611103C020952E2301C02E2BA6
:100CF0002C938FBF08958F929F92AF92BF92CF9205
:100D0000DF92EF92FF926B017C010E940A064B0179
:100D10005C01C114D104E104F104F1F00E940A065F
:100D2000DC01CB0188199909AA09BB09883E9340C7
:100D3000A105B10570F321E0C21AD108E108F1085C
:100D400088EE880E83E0981EA11CB11CC114D1044A
:100D5000E104F10419F7DDCFFF90EF90DF90CF9021
:100D6000BF90AF909F908F9008952FB7F8946091A7
:100D7000D5037091D6038091D7039091D8032FBFEC
:100D80000895CF92DF92EF92FF920F931F93CF932C
:100D9000DF93CDB7DEB7E0970FB6F894DEBF0FBE96
:100DA000CDBFBC01CE018B960E94AB03BE01655D39
:100DB0007F4FCE0185960E94AB0360EF72E0CE01BB
:100DC0004F960E94C5036AE773E0CE0149960E94E0
:100DD000C5030E94600964EF72E08091A6059091BE
:100DE000A7050E948A04BE01615E7F4F8091A6051F
:100DF0009091A7050E940A0467EE72E08091A60513
:100E00009091A7050E948A04BE016B5D7F4F80917F
:100E1000A6059091A7050E940A0462E073E0809104
:100E2000A6059091A7050E948A040091A60510913D
:100E3000A7052AE042E853E260E070E0C8010E94A2
:100E40002D0468E773E0C8010E94180465E073E0B0
:100E5000CE010D960E94C50365E173E0CE010796B1
:100E60000E94C50364E971E0CE0101960E94C503AA
:100E70006AE773E0CE0143960E94C5030E94B5065F
:100E80006B017C010E94B506DC01CB018C199D0928
:100E9000AE09BF09843F9140A105B10550F580918D
:100EA000A6059091A705DC01ED91FC910084F185E8
:100EB000E02D0995181619069CF48091A6059091CD
:100EC000A705DC01ED91FC910284F385E02D0995E5
:100ED000882329F3682FCE0143960E944303DFCF76
:100EE000BE016F5F7F4FCE0143960E94C9020196FB
:100EF00039F1BE016D5E7F4FCE0149960E94E3023B
:100F0000CE0143960E94A603CE0101960E94A6033D
:100F1000CE0107960E94A603CE010D960E94A6035D
:100F200064E971E0CE0107960E94C503BE01695FC6
:100F30007F4FCE0149960E94C902019659F514C00F
:100F4000BE01695F7F4FCE0143960E94C9020196A0
:100F500081F6BE01635F7F4FCE0143960E94C902B6
:100F6000019609F48FCFC5CF65E073E0CE010196FD
:100F70000E94C503BE016F5F7F4FCE0149960E945C
:100F8000C90211E0019609F410E0CE0101960E9419
:100F9000A60301C011E0CE0107960E94A603CE0170
:100FA00049960E94A603CE014F960E94A603CE0149
:100FB00085960E94A603CE018B960E94A60311235C
:100FC00009F454C088EA90E00E94640A0E94600913
:100FD0006BE173E08091A6059091A7050E948A04B9
:100FE0000091A6051091A7052AE041E550E060E0D8
:100FF00070E0C8010E942D0468E773E0C8010E94F8
:10100000180467E273E0CE0101960E94C50344EF25
:1010100051E060E070E0CE0101960E94F109182FC6
:10102000CE0101960E94A603112329F10E946009B6
:1010300069E273E08091A6059091A7050E948A0459
:101040006BE773E0CE0101960E94C50344EF51E0C7
:1010500060E070E0CE0101960E94F109182FCE01E8
:1010600001960E94A60311110DC005C085E990E00C
:101070000E94640A04C08CE890E00E94430A0FEFCB
:101080001FEF5CC00E94B5066B017C0100E010E020
:101090000E94B506DC01CB018C199D09AE09BF0980
:1010A000843F9140A105B10520F58091A60590915E
:1010B000A705DC01ED91FC910084F185E02D0995F7
:1010C00018161906FCF40C32B1E01B07A1F180914F
:1010D000A6059091A705DC01ED91FC910284F385B2
:1010E000E02D0995F801E658FB4F80830F5F1F4FF5
:1010F000DCCF015011096AE774E08DED93E00E94A6
:1011000076041CC00C3281E0180711F68091A60508
:101110009091A705DC01ED91FC910084F185E02D13
:101120000995892B09F4B4CF8CE790E00E94640AFA
:101130000BE211E0E0CF0CE211E0E8CFC801E0964D
:101140000FB6F894DEBF0FBECDBFDF91CF911F91D8
:101150000F91FF90EF90DF90CF9008951F920F9224
:101160000FB60F9211242F933F938F939F93AF93BA
:10117000BF938091D5039091D603A091D703B091EE
:10118000D8033091D40323E0230F2D3720F40196A8
:10119000A11DB11D05C026E8230F0296A11DB11D9A
:1011A0002093D4038093D5039093D603A093D703C1
:1011B000B093D8038091D9039091DA03A091DB0317
:1011C000B091DC030196A11DB11D8093D9039093CA
:1011D000DA03A093DB03B093DC03BF91AF919F913F
:1011E0008F913F912F910F900FBE0F901F901895E8
:1011F0004F925F926F927F928F929F92AF92BF9227
:10120000CF92DF92EF92FF920F931F93CF93DF93D2
:10121000EC015B014A01680179016AE773E00E9411
:10122000C5030E94B5062B013C010E94B506DC01F6
:10123000CB0184199509A609B7098C159D05AE0542
:10124000BF0560F58091A6059091A705DC01ED91A1
:10125000FC910084F185E02D09951816190694F487
:101260008091A6059091A705DC01ED91FC91028487
:10127000F385E02D0995882329F3682FCE010E947C
:101280004303E0CFB501CE010E94C902019631F4BB
:10129000B401CE010E94C902019639F2CE01DF915C
:1012A000CF911F910F91FF90EF90DF90CF90BF9063
:1012B000AF909F908F907F906F905F904F90089528
:1012C0008091A6059091A705DC01ED91FC91008429
:1012D000F185E02D09951816190664F48091A6058C
:1012E0009091A705DC01ED91FC910284F385E02D3E
:1012F0000995E6CF08950F931F93CF93DF93EC01E9
:101300008B016AE773E00E94C503C8010E94DA03FB
:1013100097FD08C08A30910529F0682FCE010E9400
:101320004303F3CFCE01DF91CF911F910F91089529
:101330008F929F92AF92BF92CF92DF92EF92FF92E5
:101340000F931F93CF93DF93EC018B0169017A0117
:101350006AE773E00E94C5030E94B5064B015C0179
:101360000E94B506DC01CB0188199909AA09BB09BD
:101370008C159D05AE05BF0530F58091A6059091B1
:10138000A705DC01ED91FC910084F185E02D099524
:101390001816190694F48091A6059091A705DC0112
:1013A000ED91FC910284F385E02D0995882329F3C2
:1013B000682FCE010E944303E0CFB801CE010E9406
:1013C000C902019669F2CE01DF91CF911F910F9171
:1013D000FF90EF90DF90CF90BF90AF909F908F9055
:1013E00008950F931F93CF93DF93CDB7DEB7669722
:1013F0000FB6F894DEBF0FBECDBF8C019A01AB01D2
:101400006AE773E0CE010D962B8B3C8B4D8B5E8B88
:101410000E94C503B801CE0107960E94AB032B8939
:101420003C894D895E89BE01695F7F4FCE0101967F
:101430000E949809BE016F5F7F4FCE010D960E94FA
:10144000E302CE0101960E94A603CE0107960E94F8
:10145000A603B801CE010D960E94C9028C01CE01EF
:101460000D960E94A60381E00F3F1F4F09F480E014
:1014700066960FB6F894DEBF0FBECDBFDF91CF9159
:101480001F910F9108950F931F93CF93DF938C01BA
:10149000C0E0D0E0F801EC0FFD1F6491662371F00D
:1014A000E091DD03F091DE030190F081E02D8DED00
:1014B00093E00995892B11F02196ECCFCE01DF91B5
:1014C000CF911F910F910895CF93DF930E94430A0C
:1014D000EC0168E773E08DED93E00E9418048C0F37
:1014E0009D1FDF91CF910895CF93DF93CDB7DEB7E6
:1014F000C654D1090FB6F894DEBF0FBECDBF7894A5
:1015000084B5826084BD84B5816084BD85B5826008
:1015100085BD85B5816085BD80916E0081608093B9
:101520006E00109281008091810082608093810022
:101530008091810081608093810080918000816032
:10154000809380008091B10084608093B10080918D
:10155000B00081608093B00080917A0084608093B5
:101560007A0080917A00826080937A0080917A007C
:10157000816080937A0080917A00806880937A00FD
:101580001092C100E091ED03F091EE0382E08083C0
:10159000E091E903F091EA031082E091EB03F0910E
:1015A000EC0300E100831092F503E091F103F09168
:1015B000F20386E08083E091EF03F091F0038081F5
:1015C00080618083E091EF03F091F0038081886077
:1015D0008083E091EF03F091F00380818068808345
:1015E000E091EF03F091F00380818F7D80836AE3C7
:1015F00071E08DED93E00E94760460E471E0CE012D
:10160000CB960E94C50361E571E0CE018F5B9F4FD1
:101610000E94C5030E9460090E94B506E6E0F1E061
:10162000DE01119601900D920A95E1F795E0A92E41
:10163000B12CCE0101964C01F4014191519161917F
:1016400071914F018091A6059091A7050E94E40435
:1016500061E671E08091A6059091A7050E9476044D
:1016600064E170E080E090E00E947B068091A60536
:101670009091A705DC01ED91FC910084F185E02DAE
:101680000995892BC9F26091A6057091A705CE0135
:1016900047960E947B0964E971E0CE0141960E9461
:1016A000C503BE016F5E7F4FCE0147960E94C902FF
:1016B0007C01CE0141960E94A603EF20E09471F0D8
:1016C0006FE070E080E090E00E947B06CE014796DC
:1016D0000E94A60385E0882E912C50C0CE0147962B
:1016E0000E94A603C3CF6091A6057091A705CE0105
:1016F0004D960E947B0964E971E0CE0147960E94F5
:10170000C503BE01695E7F4FCE014D960E94C9029E
:10171000019609F053C061E671E0CE0141960E9446
:10172000C503BE016F5E7F4FCE014D960E94C90278
:10173000FF24F394019609F4F12CCE0141960E9406
:10174000A603CE0147960E94A603F1103AC0CE012F
:101750004D960E94A6038091A6059091A705DC01F5
:10176000ED91FC910084F185E02D0995892B09F01C
:10177000BACFB1E08B1A910809F490C064E671E029
:101780008091A6059091A7050E948A04E090A60585
:10179000F090A7052AE040E855E260E070E0C7015C
:1017A0000E942D0468E773E0C7010E94180464E1F9
:1017B00070E080E090E00E947B06CDCFFF24F394A0
:1017C000C0CF40E855E260E070E08091A6059091BE
:1017D000A7050E94E40464E670E080E090E00E94C7
:1017E0007B06CE014D960E94A60360E771E08DED69
:1017F00093E00E9476046AE773E0CE018F960E9420
:10180000C5030E94600965E871E08091A60590918A
:10181000A7050E94760460E971E0CE0189960E94D6
:10182000C50367E971E0CE0183960E94C50364E9B0
:1018300071E0CE014D960E94C5036AE773E0CE01C8
:1018400047960E94C503BE01635E7F4FCE0101969D
:101850000E94AB0328EE33E040E050E0BE016F5F32
:101860007F4FCE0141960E949809BE016F5E7F4F67
:10187000CE0147960E94E302CE0141960E94A60344
:10188000CE0101960E94A603BE01635E7F4FCE018A
:1018900047960E94C902019651F441C0E1E0AE1A98
:1018A000B10809F0C6CEF12C6CEB71E0FDC2BE01AF
:1018B0006D5D7F4FCE0147960E94C9024C01990F82
:1018C000AA08BB08BE01675D7F4FCE0147960E9404
:1018D000C902AFEF8A169A06AA06BA0601F18F3F2F
:1018E000BFEF9B07E1F02FA138A5B501A401420F7E
:1018F000531F611D711D9C01BE01695E7F4FCE01AA
:1019000001960E94AB00BE016F5F7F4FCE018F96A4
:101910000E94E302CE0101960E94A60309C040E0A6
:1019200050E06AE773E0CE018F960E948503F12CA8
:10193000CE0147960E94A603CE014D960E94A603B3
:10194000CE0183960E94A603CE0189960E94A6032B
:10195000FF2049F08FA598A9009719F00E94C610A2
:1019600001C060E0162FCE018F960E94A603FF20D3
:1019700009F49FC2113009F4E4C06AE773E0CE01B4
:101980004D960E94C5030E94600960EA71E0809153
:10199000A6059091A7050E948A040091A6051091C2
:1019A000A7052AE041E050E060E070E0C8010E9435
:1019B0002D0468E773E0C8010E9418046BEA71E027
:1019C000CE0141960E94C50364E971E0CE01019603
:1019D0000E94C50308EE13E020E030E0AE014F5E48
:1019E0005F4FBE016F5F7F4FCE0147960E94F808A0
:1019F000BE01695E7F4FCE014D960E94E302CE018B
:101A000047960E94A603CE0101960E94A603CE012E
:101A100041960E94A60364E971E0CE0141960E94BE
:101A2000C503BE016F5E7F4FCE014D960E94C90275
:101A30000196B1F46BEA71E0CE0101960E94C503F4
:101A4000BE016F5F7F4FCE014D960E94C90211E02B
:101A5000019609F410E0CE0101960E94A60301C090
:101A60001F2DCE0141960E94A603CE014D960E94E5
:101A7000A603112309F41DC20E94600965EB71E001
:101A80008091A6059091A7050E94760464E971E013
:101A9000CE0101960E94C50348EE53E060E070E07D
:101AA000CE0101960E94F109182FCE0101960E94E5
:101AB000A603112309F4FDC160ED77E080E090E01A
:101AC0000E947B060E94B5064B015C010E94B50690
:101AD000DC01CB0188199909AA09BB09883B9B4005
:101AE000A105B10508F0E5C10E94600961E671E059
:101AF0008091A6059091A7050E94760464E971E0A3
:101B0000CE0101960E94C50348EE53E060E070E00C
:101B1000CE0101960E94F109182FCE0101960E9474
:101B2000A603112339F06CED75E080E090E00E948F
:101B30007B0607C064E670E080E090E00E947B06D0
:101B4000C5CF66EC72E08DED93E00E947604BE0195
:101B5000655C7F4FCE018F960E94AB03BE016F5B29
:101B60007F4FCE01C5960E94AB03BE01615D7F4FE2
:101B7000CE0189960E94AB03BE016B5C7F4FCE0104
:101B800083960E94AB036AE773E0CE014D960E94F4
:101B9000C5030E9460096CED72E08091A6059091EA
:101BA000A7050E948A04BE016D5D7F4F8091A60546
:101BB0009091A7050E940A0467EE72E08091A60545
:101BC0009091A7050E948A04BE01675D7F4F8091B6
:101BD000A6059091A7050E940A0469EE72E0809123
:101BE000A6059091A7050E9476046BEE72E0CE01E7
:101BF00041960E94C50364E971E0CE0101960E94FE
:101C0000C50300E117E220E030E0AE014F5E5F4F18
:101C1000BE016F5F7F4FCE0147960E94F808BE015C
:101C2000695E7F4FCE014D960E94E302CE0147963A
:101C30000E94A603CE0101960E94A603CE01419602
:101C40000E94A60364E971E0CE0101960E94C503DB
:101C5000BE016F5F7F4FCE014D960E94C9028C017D
:101C6000CE0101960E94A603CE014D960E94A603C6
:101C7000CE0183960E94A603CE0189960E94A603F8
:101C8000CE01C5960E94A603CE018F960E94A603A0
:101C90000F3F1F4F09F45FC160ED71E08DED93E0E0
:101CA0000E948A046AE773E0CE014D960E94C50344
:101CB0000E94600968EE71E08091A6059091A705E9
:101CC0000E94760462E370E080E090E00E947B0670
:101CD0008091A6059091A705DC01ED91FC9100840F
:101CE000F185E02D0995181619060CF02BC16091AD
:101CF000A6057091A705CE0101960E947B09BE0141
:101D00006F5F7F4FCE014D960E94E302CE01019698
:101D10000E94A60361EF71E0CE0101960E94C50307
:101D2000BE016F5F7F4FCE014D960E94C9028C01AC
:101D3000CE0101960E94A6030F3F1F4F49F264E6B1
:101D400070E080E090E00E947B06A9A0BAA092E03B
:101D5000A91AB10861EF71E0CE0141960E94C50356
:101D6000BE016F5E7F4FCE014D960E94C902AC014D
:101D70004C5F5F4F9501BE01635E7F4FCE0147967A
:101D80000E94AB0064EF71E0CE0101960E94C50392
:101D90008B8D9C8D0F89188DAD80BE80A80EB91ECD
:101DA0000115110509F4DDC0892B09F0B8C0BE0189
:101DB0006F5F7F4FCE0183960E94AB03CE010196E9
:101DC0000E94A603CE0147960E94A603CE0141962B
:101DD0000E94A603CE014D960E94A6036BA17CA192
:101DE0008DED93E00E947604CE0183960E94A603B7
:101DF0000E9460096AE773E0CE0141960E94C50324
:101E000060E172E08091A6059091A7050E9476049A
:101E100062E370E080E090E00E947B068091A6057E
:101E20009091A705DC01ED91FC910084F185E02DF6
:101E30000995181619060CF08CC06091A6057091D2
:101E4000A705CE0101960E947B09BE016F5F7F4FFF
:101E5000CE0141960E94E302CE0101960E94A603A4
:101E600064E971E0CE0101960E94C503BE016F5F77
:101E70007F4FCE0141960E94C9028C01CE0101968E
:101E80000E94A6030F3F1F4F49F264E670E080E016
:101E900090E00E947B06CE0141960E94A603FF209F
:101EA00009F45CC06AE372E08DED93E00E94760471
:101EB00007C069E672E08DED93E00E947604F12C94
:101EC000CE018F5B9F4F0E94A603CE01CB960E944E
:101ED000A603F11007C060E972E08DED93E00E9467
:101EE0007604FFCF67EC75E0CE0101960E94AB034C
:101EF000CE0101960E94C106CE0101960E94A60362
:101F000060EA7FE080E090E00E947B0667EB72E091
:101F10008DED93E00E9476040E94FF01E3CFB501AE
:101F2000CE0101960E941C038823D9F029813A81B1
:101F30008D819E81B801820F931F0E94AD13BE82D6
:101F4000AD8235CF69EF71E0CE0183960E94C50363
:101F500041CFF12CA0CF6CE172E0ADCF69E472E02B
:101F6000A3CFCE0101960E94730321CF8CE291E0B2
:101F70009093A9058093A80588EA95E00E94AF0296
:101F800087EC95E00C94A603CF92DF92EF92FF923C
:101F9000CF93DF931092E0031092DF0368EEC62E1A
:101FA00063E0D62EE12CF12CC092E103D092E20343
:101FB000E092E303F092E4038AE191E09093DE0380
:101FC0008093DD0385EC90E09093EA038093E9032E
:101FD00084EC90E09093EC038093EB0380EC90E032
:101FE0009093EE038093ED0381EC90E09093F003E7
:101FF0008093EF0382EC90E09093F2038093F103DF
:1020000086EC90E09093F4038093F3031092F60330
:102010001092F7031092F8031092F90363E873E04B
:1020200087EC95E00E94C5031092AB051092AA05BB
:10203000C092AC05D092AD05E092AE05F092AF052E
:102040008CE291E09093A9058093A8051092BF05BA
:102050001092BE051092C1051092C0051092C305E2
:102060001092C2051092C5051092C4056091C60574
:102070006E7F6D7F6093C6056695617081E068270D
:102080008BE00E942F06E5EFF0E02491E1EEF0E016
:102090008491882399F090E0880F991FFC01EE53FA
:1020A000FF4FA591B491FC01E854FF4F85919491A5
:1020B0008FB7F894EC91E22BEC938FBFE5EFF0E053
:1020C000E491E093B805E1EEF0E0E491F0E0EE0F8A
:1020D000FF1FE854FF4F859194919093BA05809328
:1020E000B905E4EFF0E02491E0EEF0E0849188237C
:1020F000C1F090E0880F991FFC01EE53FF4FC5918E
:10210000D491FC01E854FF4FA591B4919FB7F89486
:102110008881E22FE0958E2388838C91E823EC93CD
:102120009FBF8091C60581FD04C061E08AE00E94E6
:102130002F068AE08093B405E4EFF0E0E491E093A9
:10214000B505E0EEF0E0E491F0E0EE0FFF1FE453A0
:10215000FF4F859194919093B7058093B605EAE778
:10216000F4E08CE291E0DF019C011D9221503040AF
:10217000E1F788EA95E09093A7058093A605DF91A3
:10218000CF91FF90EF90DF90CF9008951F93FC01C7
:1021900099278827BC01E89411911032E9F319308E
:1021A00010F01E30C8F31B3251F01D3249F4689410
:1021B00006C00E94ED10610F711D811D911D1191CE
:1021C00010531A30B0F33EF4909580957095619558
:1021D0007F4F8F4F9F4F1F910895592F482F372FB3
:1021E000262F660F771F881F991F660F771F881F7E
:1021F000991F620F731F841F951F660F771F881F1B
:10220000991F08952F923F924F925F926F927F9203
:102210008F929F92AF92BF92CF92DF92EF92FF92F6
:102220000F931F93CF93DF93CDB7DEB7CA1BDB0BA2
:102230000FB6F894DEBF0FBECDBF09942A88398847
:1022400048885F846E847D848C849B84AA84B9844E
:10225000C884DF80EE80FD800C811B81AA81B9815A
:10226000CE0FD11D0FB6F894DEBF0FBECDBFED016E
:10227000089597FB072E16F4009407D077FD09D038
:102280000E948E1107FC05D03EF4909581959F4FDA
:102290000895709561957F4F0895A1E21A2EAA1BAB
:1022A000BB1BFD010DC0AA1FBB1FEE1FFF1FA21706
:1022B000B307E407F50720F0A21BB30BE40BF50B03
:1022C000661F771F881F991F1A9469F7609570958C
:1022D000809590959B01AC01BD01CF010895052E1D
:1022E00097FB1EF400940E94861157FD07D00E94B0
:1022F0004D1107FC03D04EF40C9486115095409577
:10230000309521953F4F4F4F5F4F089590958095A1
:10231000709561957F4F8F4F9F4F0895AA1BBB1BF0
:1023200051E107C0AA1FBB1FA617B70710F0A61BD5
:10233000B70B881F991F5A95A9F780959095BC01F6
:10234000CD010895EE0FFF1F0590F491E02D099443
:10235000CF93DF938230910510F482E090E0E0911A
:10236000CF05F091D00520E030E0C0E0D0E030971C
:1023700011F14081518148175907C0F0481759079A
:1023800061F482819381209719F09B838A832BC00B
:102390009093D0058093CF0526C02115310519F003
:1023A0004217530718F49A01BE01DF01EF010280C2
:1023B000F381E02DDCCF2115310509F1281B390B04
:1023C0002430310590F412968D919C9113976115EC
:1023D000710521F0FB019383828304C09093D005A3
:1023E0008093CF05FD01329644C0FD01E20FF31F3B
:1023F00081939193225031092D933C933AC02091BF
:10240000CD053091CE05232B41F42091020130916E
:1024100003013093CE052093CD052091000130912A
:1024200001012115310541F42DB73EB7409104015A
:1024300050910501241B350BE091CD05F091CE059F
:10244000E217F307A0F42E1B3F0B2817390778F08B
:10245000AC014E5F5F4F2417350748F04E0F5F1FEA
:102460005093CE054093CD058193919302C0E0E057
:10247000F0E0CF01DF91CF9108950F931F93CF9399
:10248000DF93009709F48CC0FC013297138212820B
:102490000091CF051091D0050115110581F420811F
:1024A0003181820F931F2091CD053091CE052817E1
:1024B000390779F5F093CE05E093CD0571C0D801C9
:1024C00040E050E0AE17BF0750F412962D913C91BA
:1024D0001397AD012115310509F1D901F3CF9D0104
:1024E000DA013383228360817181860F971F8217FF
:1024F000930769F4EC0128813981260F371F2E5F7D
:102500003F4F318320838A819B8193838283452B34
:1025100029F4F093D005E093CF0542C01396FC93C5
:10252000EE931297ED01499159919E01240F351FA9
:10253000E217F30771F480819181840F951F029651
:1025400011969C938E938281938113969C938E9384
:102550001297E0E0F0E0D80112968D919C911397CC
:10256000009719F0F8018C01F6CF8D919C9198019C
:102570002E5F3F4F820F931F2091CD053091CE05E6
:102580002817390769F4309729F41092D005109272
:10259000CF0502C0138212821093CE050093CD05A1
:1025A000DF91CF911F910F910895A0E0B0E0EBED86
:1025B000F2E10C940611EC01009721F4CB010E948A
:1025C000A811B8C0FC01E60FF71F9C012250310989
:1025D000E217F30708F4ACC0D9010D911C911197D3
:1025E00006171707B0F00530110508F49FC0C801A1
:1025F00004978617970708F499C002501109061B23
:10260000170B019311936D937C93CF010E943D12A0
:102610008DC05B01A01AB10A4C01800E911EA091E1
:10262000CF05B091D00540E050E0E12CF12C10979F
:1026300009F44AC0A815B905D1F56D907C901197A1
:10264000630182E0C80ED11CCA14DB0480F1A3012F
:102650004A195B096A0182E0C80ED11C1296BC902F
:1026600012971396AC91B5E0CB16D10440F0B2822C
:10267000A38351834083D9016D937C930AC00E5F7D
:102680001F4FC301800F911FF90191838083EB2DB0
:10269000FA2FE114F10431F0D7011396FC93EE9375
:1026A000129744C0F093D005E093CF053FC08D91C1
:1026B0009C9111974817590708F4AC017D011296B7
:1026C0000D90BC91A02DB3CF8091CD059091CE05FA
:1026D00088159905E1F446175707C8F48091000161
:1026E00090910101009741F48DB79EB7409104018C
:1026F00050910501841B950BE817F907C8F4F09376
:10270000CE05E093CD05F901718360830FC0CB0145
:102710000E94A8117C01009759F0A801BE010E94F7
:10272000A413CE010E943D12C70104C0CE0102C015
:1027300080E090E0CDB7DEB7EEE00C94221181E0AE
:1027400090E0F8940C94CE13FB01DC0102C00190E0
:102750000D9241505040D8F70895FB01DC010190E3
:102760000D920020E1F70895FB0151915523A9F046
:10277000BF01DC014D9145174111E1F759F4CD013D
:102780000190002049F04D9140154111C9F3FB0122
:102790004111EFCF81E090E00197089510E0C0E88B
:1027A000D0E004C0FE010E94A2112196C138D107D9
:0627B000C9F7F894FFCF09
:1027B6000000D105800080250000004B000000E1EC
:1027C600000000C2010000000000960103012E0176
:1027D600DD015F013D0151010000000022020301FD
:1027E600C602210276028E020902426567696E0000
:1027F600494E4E424F583236303930303036313706
:102806000048312054656C656B6F6D2065636164AB
:102816000041540041542B43494F424155443D0029
:1028260042617564726174652073657420737563A3
:10283600636573730041542B43574D4F44453F0026
:102846000D0A0D0A4F4B002B43574D4F44453A0096
:1028560041542B43574D4F44453D006E6F206368EE
:10286600616E67650041542B525354004261756492
:102876007261746520736574206661696C656400B5
:102886004A6F696E696E6720415020737563636590
:10289600737366756C2C200041542B434946535282
:1028A6000049500049503A2000436F756C646E270A
:1028B60074206765742049502061647265737300E3
:1028C60041542B4349504D55583D30004A6F696E6F
:1028D600204150206661696C7572652C20526573C3
:1028E600657420426F617264210053696E676C657E
:1028F600204D6F6465204F4B0053696E676C6520F1
:102906004D6F6465204572726F722C205265736537
:102916007420426F617264210053746174696F6E32
:10292600202B20736F66744150202D204572726FE4
:10293600722C20526573657420426F6172642100A7
:102946005769666920496E6974206661696C6564B9
:102956002E20436865636B20636F6E6669677572C8
:102966006174696F6E2E005A61767273696F2064A6
:10297600656C6179210053746174696F6E202B2038
:10298600736F66744150202D204F4B0041542B43EA
:10299600574A41503D2200222C22004641494C0014
:1029A6005443500041542B43495053544152543DD3
:1029B6002200222C00414C524541445920434F4E9F
:1029C6004E454354004552524F520041542B434901
:1029D6005053454E443D003E00474554202F626DFE
:1029E6006C696B6F74612F696E6465782E78687494
:1029F6006D6C20485454502F312E310D0A486F7398
:102A0600743A203139322E3136382E312E373A3952
:102A16003039300D0A436F6E6E656374696F6E3AB6
:102A260020636C6F73650D0A0D0A0053454E4420F2
:102A36004F4B003139322E3136382E312E370000C9
:00000001FF
