:100000000C9481000C94A9000C94A9000C94900508
:100010000C9490050C9490050C94A9000C94A900E4
:100020000C94A9000C94A9000C94A9000C94A900AC
:100030000C94A9000C94A9000C94A9000C94A9009C
:100040000C94AE080C94A9000C94B2040C948C048B
:100050000C94A9000C94A9000C94A9000C94A9007C
:100060000C94A9000C94A9000000000800020100F3
:1000700000030407000000000000000062756666CF
:1000800065722069732066756C6C21006E6F742038
:1000900073656E74006372656174652074637020AB
:1000A0002D204552524F5200637265617465207471
:1000B0006370202D204F4B00000000002500280019
:1000C0002B0000000000240027002A000000000090
:1000D000230026002900040404040404040402028A
:1000E00002020202030303030303010204081020B7
:1000F0004080010204081020010204081020CA0FE9
:10010000BC0F11241FBECFEFD8E0DEBFCDBF25E06E
:10011000AAE8B3E001C01D92AB3CB207E1F713E0DF
:10012000A0E0B1E0E2ECF7E202C005900D92AA383F
:10013000B107D9F710E0C0E8D0E004C02197FE0174
:100140000E94A811CF37D107C9F70E94740A0C94F6
:10015000D4130C940000BF92CF92DF92EF92FF92E3
:100160000F931F93CF93DF937C016B01EA01890109
:100170002417350720F48D2FE901042F182F65E788
:1001800073E0C7010E94C503D60114968D919C911E
:100190001597C817D90748F58017910708F48C01FF
:1001A000D601ED91FC911197E00FF11FB080108204
:1001B0004D915C91BA016C0F7D1F6115710561F065
:1001C000FB0101900020E9F73197AF01461B570B67
:1001D000C7010E94850303C0C7010E947303D601B3
:1001E000ED91FC91E00FF11FB082C701DF91CF913B
:1001F0001F910F91FF90EF90DF90CF90BF900895E7
:100200000E94A5130895CF92DF92EF92FF920F9371
:100210001F93CF93DF936C017A018B01C0E0D0E094
:10022000CE15DF0589F0D8016D918D01D601ED91D4
:10023000FC910190F081E02DC6010995892B11F404
:100240007E0102C02196ECCFC701DF91CF911F91B3
:100250000F91FF90EF90DF90CF900895FC01538DA8
:10026000448D252F30E0842F90E0821B930B541790
:1002700010F0CF96089501970895FC01918D828D1D
:10028000981761F0828DDF01A80FB11D5D968C91EA
:10029000928D9F5F9F73928F90E008958FEF9FEFF5
:1002A0000895FC01918D828D981731F0828DE80FB1
:1002B000F11D858D90E008958FEF9FEF0895FC016B
:1002C000918D228D892F90E0805C9F4F821B910938
:1002D0008F739927089587ED93E00E945F0121E0D5
:1002E000892B09F420E0822F0895FC01848DDF0121
:1002F000A80FB11DA35ABF4F2C91848D90E0019699
:100300008F739927848FA689B7892C93A089B18987
:100310008C9180648C93938D848D981306C0028891
:10032000F389E02D80818F7D80830895EF92FF9285
:100330000F931F93CF93DF93EC0181E0888F9B8D08
:100340008C8D981305C0E889F989808185FD24C0CA
:10035000F62E0B8D10E00F5F1F4F0F731127E02E4D
:100360008C8DE8120CC00FB607FCFACFE889F9892A
:10037000808185FFF5CFCE010E947501F1CF8B8D75
:10038000FE01E80FF11DE35AFF4FF0820B8FEA895F
:10039000FB898081806207C0EE89FF896083E889DC
:1003A000F98980818064808381E090E0DF91CF9142
:1003B0001F910F91FF90EF900895CF93DF93EC0181
:1003C000888D8823C9F0EA89FB89808185FD05C075
:1003D000A889B9898C9186FD0FC00FB607FCF5CFAF
:1003E000808185FFF2CFA889B9898C9185FFEDCFF7
:1003F000CE010E947501E7CFDF91CF91089580E093
:1004000090E0892B29F00E946B0181110C9400006F
:1004100008952091CC033091CD032817390771F44A
:100420009091CB038091CA03981741F0E091CB03E0
:10043000F0E0E657FC4F808190E008958FEF9FEF4A
:10044000089508951F93CF93DF93DC015C962D915F
:100450003C915D972115310539F481E090E01396C8
:100460009C938E9312973DC05196ED91FC915297BB
:1004700050969C915097892F80951FB75E964C910E
:100480005E9741FB772770F941FD6095F8944081B4
:10049000772311F0492B01C048234083E9012197BC
:1004A000F1F748E0508160FF02C0592B01C058238A
:1004B0005083E9012197F1F76695415099F7772329
:1004C00021F090818923808303C08081982B9083C1
:1004D0001FBF5C968D919C915D970197F1F721E08C
:1004E00030E0C901DF91CF911F9108952091CC0395
:1004F0003091CD032817390771F48091CA032091F8
:10050000CB0390E0805C9F4F821B910960E470E018
:100510000E943F11089580E090E008952091CC035F
:100520003091CD0328173907B9F49091CB0380910E
:10053000CA03981789F0E091CB03F0E0E657FC4F2F
:1005400080812091CB0330E02F5F3F4F2F73332703
:100550002093CB0390E008958FEF9FEF0895E091F3
:10056000CC03F091CD03E817F90769F4A389B489A6
:100570009C918589809589238C931092CD0310924C
:10058000CC0381E0089580E00895089580E090E034
:100590000895CF93DF93FC0124813581232B71F0E3
:1005A000FB01DC01CD91DC9160817181CE010E9463
:1005B000BA13009719F08C1B9D0B02C08FEF9FEFB1
:1005C000DF91CF9108950F931F93CF93DF938C0109
:1005D000EB01FC01808191810097B1F06881798104
:1005E0006115710579F0428153812C813D8142175B
:1005F000530740F00E94B3138C819D81F8019583CD
:10060000848313C00E94431288819981F8019183E9
:1006100080838A819B81938382838C819D81958352
:100620008483198218821B821A821D821C82DF91A8
:10063000CF911F910F9108950F931F93CF93DF9345
:10064000EC0188819981009729F02A813B81261746
:10065000370788F48B016F5F7F4F0E94DB12009792
:1006600061F0998388831B830A832C813D81232B2E
:1006700011F4FC01108281E001C080E0DF91CF9194
:100680001F910F910895EF92FF920F931F93CF93B5
:10069000DF9300D0CDB7DEB78C0169831A82FC01ED
:1006A000E480F580FFEFEF1AFF0AB7010E941C03F8
:1006B000882381F0F8012081318184819581BE01F8
:1006C0006F5F7F4F820F931F0E94B313F801F58273
:1006D000E48281E00F900F90DF91CF911F910F91F5
:1006E000FF90EF900895CF93DF93EC01888199817B
:1006F000009711F00E944312198218821D821C82F9
:100700001B821A82DF91CF910895EF92FF920F938F
:100710001F93CF93DF93EC017B018A01BA010E9402
:100720001C03811104C0CE010E94730307C01D8306
:100730000C83B701888199810E94B313CE01DF91A8
:10074000CF911F910F91FF90EF900895FC01808150
:1007500091810C944312FB01DC0111961C921E92B4
:1007600013961C921E92129715961C921E92149725
:100770008617970749F0608171816115710521F035
:10078000448155810C9485030895FC0111821082E7
:1007900013821282158214826115710551F0FB01DA
:1007A00001900020E9F73197AF01461B570B0C94DD
:1007B000850308950F931F93CF93DF93EC010E945D
:1007C000B506688779878A879B87E881F9810284E3
:1007D000F385E02DCE01099597FF17C00E94B5065D
:1007E000088519852A853B85DC01CB01801B910B8F
:1007F000A20BB30B0C811D812E813F8180179107C5
:10080000A207B30710F38FEF9FEFDF91CF911F91F6
:100810000F910895DC01ED91FC91DB0114964D914F
:100820005C9115976D917C910280F381E02D099484
:100830006115710579F0FB0101900020E9F731970E
:10084000AF01461B570BDC01ED91FC910280F38157
:10085000E02D099480E090E008954F925F926F92AE
:100860007F92EF92FF920F931F93CF93DF93CDB7B9
:10087000DEB7A1970FB6F894DEBF0FBECDBF7C01E7
:10088000FA01CB0119A2223008F42AE08E010F5D93
:100890001F4F422E512C612C712CBF01A3019201DC
:1008A0000E945311F901CA01015011096A3014F470
:1008B000605D01C0695CD8016C93232B242B252B30
:1008C00061F7B801C7010E941804A1960FB6F89409
:1008D000DEBF0FBECDBFDF91CF911F910F91FF9073
:1008E000EF907F906F905F904F9008950F931F93BC
:1008F000CF93DF93EC010E9418048C0163E773E04F
:10090000CE010E941804800F911FDF91CF911F919B
:100910000F9108950C9418041F920F920FB60F9226
:1009200011242F933F934F935F936F937F938F93F4
:100930009F93AF93BF93EF93FF9387ED93E00E9454
:100940007501FF91EF91BF91AF919F918F917F9131
:100950006F915F914F913F912F910F900FBE0F902C
:100960001F9018951F920F920FB60F9211242F937C
:100970008F939F93EF93FF93E091E703F091E80348
:100980008081E091ED03F091EE0382FD12C0908131
:100990008091F0038F5F8F732091F103821751F0E4
:1009A000E091F003F0E0E952FC4F958F8093F00363
:1009B00001C08081FF91EF919F918F912F910F90B6
:1009C0000FBE0F901F901895CF93DF93EC019A0103
:1009D000AB011B8E1A8E198E188E1F8A1E8A60E03C
:1009E00079E08DE390E00E947511F9012430310522
:1009F00018F0C901039702C081E090E09D8F8C8FB1
:100A00006C85663108F069C0C90196958795843177
:100A1000910510F0439702C081E090E09F8B8E8B90
:100A2000369718F0C901059702C081E090E0998FD0
:100A3000888FC901880F991F280F391F3695279570
:100A4000369527952D30310518F02C50310902C00C
:100A500021E030E03B8F2A8F90916800683050F0A1
:100A600021E06E3008F420E081E001C0880F2A9573
:100A7000EAF701C084E0892B809368009C85983058
:100A800038F09E3040F0963148F020E030E008C069
:100A90002DE630E005C02BE630E002C02CE630E069
:100AA0003C8B2B8B983030F481E001C0880F9A95F5
:100AB000EAF70EC0292F30E09E3018F42850310993
:100AC00002C02E50310981E001C0880F2A95EAF753
:100AD0008D8B8C8D9D8D0197F1F78A8D9B8D892B48
:100AE000E1F08091CC039091CD038C179D07A9F084
:100AF000009711F00E94AF028E8D8E7F8E8F109224
:100B0000CA031092CB03D093CD03C093CC03EB89DF
:100B1000FC8990818D89892B8083DF91CF91089505
:100B20001F920F920FB60F9211242F933F934F9362
:100B30005F936F937F938F939F93AF93BF93EF9345
:100B4000FF93E091CC03F091CD03309709F451C0AD
:100B5000968DA685B785858591FF04C09C918923D4
:100B600029F447C09C91892309F043C0A389B48923
:100B70009C918589809589238C9386899789019793
:100B8000F1F7608D718DA685B785558538E020E039
:100B9000CB010197F1F7822F90E095958795282F4B
:100BA0004C91452309F02068315091F7868D81FDE5
:100BB00020958091CA0390E001968F739927309118
:100BC000CB03381749F0A091CA03B0E0A657BC4F39
:100BD0002C938093CA0303C0868D8160868F828D9B
:100BE000938D0197F1F7A389B4899C918589892B0D
:100BF0008C93FF91EF91BF91AF919F918F917F91D6
:100C00006F915F914F913F912F910F900FBE0F9079
:100C10001F9018953FB7F8948091D3039091D40317
:100C2000A091D503B091D60326B5A89B05C02F3F50
:100C300019F00196A11DB11D3FBFBA2FA92F982F02
:100C40008827820F911DA11DB11DBC01CD0142E07D
:100C5000660F771F881F991F4A95D1F7089590E076
:100C6000FC01E859FF4F3491FC01E651FF4F2491FC
:100C7000FC01EA52FF4FE491EE2309F43BC0332319
:100C800039F1333091F038F43130A9F0323001F5D8
:100C900084B58F7D12C0373091F03830A1F03430F8
:100CA000B9F4809180008F7D03C0809180008F77A0
:100CB000809380000DC084B58F7784BD09C080917A
:100CC000B0008F7703C08091B0008F7D8093B0001B
:100CD000F0E0EE0FFF1FE854FF4FA591B4918FB7DE
:100CE000F894EC91611103C020952E2301C02E2BA6
:100CF0002C938FBF08958F929F92AF92BF92CF9205
:100D0000DF92EF92FF926B017C010E940A064B0179
:100D10005C01C114D104E104F104F1F00E940A065F
:100D2000DC01CB0188199909AA09BB09883E9340C7
:100D3000A105B10570F321E0C21AD108E108F1085C
:100D400088EE880E83E0981EA11CB11CC114D1044A
:100D5000E104F10419F7DDCFFF90EF90DF90CF9021
:100D6000BF90AF909F908F9008952FB7F8946091A7
:100D7000CF037091D0038091D1039091D2032FBF04
:100D80000895CF92DF92EF92FF920F931F93CF932C
:100D9000DF93CDB7DEB7E0970FB6F894DEBF0FBE96
:100DA000CDBFBC01CE018B960E94AB03BE01655D39
:100DB0007F4FCE0185960E94AB036AEE72E0CE01B2
:100DC0004F960E94C50365E773E0CE0149960E94E5
:100DD000C5030E9460096EEE72E08091A0059091BB
:100DE000A1050E948A04BE01615E7F4F8091A0052B
:100DF0009091A1050E940A0461EE72E08091A00525
:100E00009091A1050E948A04BE016B5D7F4F809185
:100E1000A0059091A1050E940A046CEF72E08091F8
:100E2000A0059091A1050E948A040091A00510914F
:100E3000A1052AE042E853E260E070E0C8010E94A8
:100E40002D0463E773E0C8010E9418046FEF72E09D
:100E5000CE010D960E94C5036FE073E0CE010796A8
:100E60000E94C50365E971E0CE0101960E94C503A9
:100E700065E773E0CE0143960E94C5030E94B50664
:100E80006B017C010E94B506DC01CB018C199D0928
:100E9000AE09BF09843F9140A105B10550F580918D
:100EA000A0059091A105DC01ED91FC910084F185F4
:100EB000E02D0995181619069CF48091A0059091D3
:100EC000A105DC01ED91FC910284F385E02D0995EB
:100ED000882329F3682FCE0143960E944303DFCF76
:100EE000BE016F5F7F4FCE0143960E94C9020196FB
:100EF00039F1BE016D5E7F4FCE0149960E94E3023B
:100F0000CE0143960E94A603CE0101960E94A6033D
:100F1000CE0107960E94A603CE010D960E94A6035D
:100F200065E971E0CE0107960E94C503BE01695FC5
:100F30007F4FCE0149960E94C902019659F514C00F
:100F4000BE01695F7F4FCE0143960E94C9020196A0
:100F500081F6BE01635F7F4FCE0143960E94C902B6
:100F6000019609F48FCFC5CF6FEF72E0CE010196E5
:100F70000E94C503BE016F5F7F4FCE0149960E945C
:100F8000C90211E0019609F410E0CE0101960E9419
:100F9000A60301C011E0CE0107960E94A603CE0170
:100FA00049960E94A603CE014F960E94A603CE0149
:100FB00085960E94A603CE018B960E94A60311235C
:100FC00009F454C088EA90E00E94640A0E94600913
:100FD00065E173E08091A0059091A1050E948A04CB
:100FE0000091A0051091A1052AE042E550E060E0E3
:100FF00070E0C8010E942D0463E773E0C8010E94FD
:10100000180461E273E0CE0101960E94C50344EF2B
:1010100051E060E070E0CE0101960E94F109182FC6
:10102000CE0101960E94A603112329F10E946009B6
:1010300063E273E08091A0059091A1050E948A046B
:1010400066E773E0CE0101960E94C50344EF51E0CC
:1010500060E070E0CE0101960E94F109182FCE01E8
:1010600001960E94A60311110DC005C085E990E00C
:101070000E94640A04C08CE890E00E94430A0FEFCB
:101080001FEF5CC00E94B5066B017C0100E010E020
:101090000E94B506DC01CB018C199D09AE09BF0980
:1010A000843F9140A105B10520F58091A005909164
:1010B000A105DC01ED91FC910084F185E02D0995FD
:1010C00018161906FCF40C32B1E01B07A1F180914F
:1010D000A0059091A105DC01ED91FC910284F385BE
:1010E000E02D0995F801EC58FB4F80830F5F1F4FEF
:1010F000DCCF0150110964E774E087ED93E00E94B2
:1011000076041CC00C3281E0180711F68091A0050E
:101110009091A105DC01ED91FC910084F185E02D19
:101120000995892B09F4B4CF8CE790E00E94640AFA
:101130000BE211E0E0CF0CE211E0E8CFC801E0964D
:101140000FB6F894DEBF0FBECDBFDF91CF911F91D8
:101150000F91FF90EF90DF90CF9008951F920F9224
:101160000FB60F9211242F933F938F939F93AF93BA
:10117000BF938091CF039091D003A091D103B09100
:10118000D2033091CE0323E0230F2D3720F40196B4
:10119000A11DB11D05C026E8230F0296A11DB11D9A
:1011A0002093CE038093CF039093D003A093D103D9
:1011B000B093D2038091D3039091D403A091D5032F
:1011C000B091D6030196A11DB11D8093D3039093D6
:1011D000D403A093D503B093D603BF91AF919F9151
:1011E0008F913F912F910F900FBE0F901F901895E8
:1011F0004F925F926F927F928F929F92AF92BF9227
:10120000CF92DF92EF92FF920F931F93CF93DF93D2
:10121000EC015B014A016801790165E773E00E9416
:10122000C5030E94B5062B013C010E94B506DC01F6
:10123000CB0184199509A609B7098C159D05AE0542
:10124000BF0560F58091A0059091A105DC01ED91AD
:10125000FC910084F185E02D09951816190694F487
:101260008091A0059091A105DC01ED91FC91028493
:10127000F385E02D0995882329F3682FCE010E947C
:101280004303E0CFB501CE010E94C902019631F4BB
:10129000B401CE010E94C902019639F2CE01DF915C
:1012A000CF911F910F91FF90EF90DF90CF90BF9063
:1012B000AF909F908F907F906F905F904F90089528
:1012C0008091A0059091A105DC01ED91FC91008435
:1012D000F185E02D09951816190664F48091A00592
:1012E0009091A105DC01ED91FC910284F385E02D44
:1012F0000995E6CF08950F931F93CF93DF93EC01E9
:101300008B0165E773E00E94C503C8010E94DA0300
:1013100097FD08C08A30910529F0682FCE010E9400
:101320004303F3CFCE01DF91CF911F910F91089529
:101330008F929F92AF92BF92CF92DF92EF92FF92E5
:101340000F931F93CF93DF93EC018B0169017A0117
:1013500065E773E00E94C5030E94B5064B015C017E
:101360000E94B506DC01CB0188199909AA09BB09BD
:101370008C159D05AE05BF0530F58091A0059091B7
:10138000A105DC01ED91FC910084F185E02D09952A
:101390001816190694F48091A0059091A105DC011E
:1013A000ED91FC910284F385E02D0995882329F3C2
:1013B000682FCE010E944303E0CFB801CE010E9406
:1013C000C902019669F2CE01DF91CF911F910F9171
:1013D000FF90EF90DF90CF90BF90AF909F908F9055
:1013E00008950F931F93CF93DF93CDB7DEB7669722
:1013F0000FB6F894DEBF0FBECDBF8C019A01AB01D2
:1014000065E773E0CE010D962B8B3C8B4D8B5E8B8D
:101410000E94C503B801CE0107960E94AB032B8939
:101420003C894D895E89BE01695F7F4FCE0101967F
:101430000E949809BE016F5F7F4FCE010D960E94FA
:10144000E302CE0101960E94A603CE0107960E94F8
:10145000A603B801CE010D960E94C9028C01CE01EF
:101460000D960E94A60381E00F3F1F4F09F480E014
:1014700066960FB6F894DEBF0FBECDBFDF91CF9159
:101480001F910F9108950F931F93CF93DF938C01BA
:10149000C0E0D0E0F801EC0FFD1F6491662371F00D
:1014A000E091D703F091D8030190F081E02D87ED12
:1014B00093E00995892B11F02196ECCFCE01DF91B5
:1014C000CF911F910F910895CF93DF930E94430A0C
:1014D000EC0163E773E087ED93E00E9418048C0F42
:1014E0009D1FDF91CF910895CF93DF93CDB7DEB7E6
:1014F000C654D1090FB6F894DEBF0FBECDBF7894A5
:1015000084B5826084BD84B5816084BD85B5826008
:1015100085BD85B5816085BD80916E0081608093B9
:101520006E00109281008091810082608093810022
:101530008091810081608093810080918000816032
:10154000809380008091B10084608093B10080918D
:10155000B00081608093B00080917A0084608093B5
:101560007A0080917A00826080937A0080917A007C
:10157000816080937A0080917A00806880937A00FD
:101580001092C100E091E703F091E80382E08083CC
:10159000E091E303F091E4031082E091E503F09120
:1015A000E60300E100831092EF03E091EB03F0917A
:1015B000EC0386E08083E091E903F091EA03808107
:1015C00080618083E091E903F091EA038081886083
:1015D0008083E091E903F091EA0380818068808351
:1015E000E091E903F091EA0380818F7D80836BE3D2
:1015F00071E087ED93E00E94760461E471E0CE0132
:10160000CB960E94C50362E571E0CE018F5B9F4FD0
:101610000E94C5030E9460090E94B506E7E0F1E060
:10162000DE01119601900D920A95E1F795E0A92E41
:10163000B12CCE0101964C01F4014191519161917F
:1016400071914F018091A0059091A1050E94E40441
:1016500062E671E08091A0059091A1050E94760458
:1016600064E170E080E090E00E947B068091A0053C
:101670009091A105DC01ED91FC910084F185E02DB4
:101680000995892BC9F26091A0057091A105CE0141
:1016900047960E947B0965E971E0CE0141960E9460
:1016A000C503BE016F5E7F4FCE0147960E94C902FF
:1016B0007C01CE0141960E94A603EF20E09471F0D8
:1016C0006FE070E080E090E00E947B06CE014796DC
:1016D0000E94A60385E0882E912C50C0CE0147962B
:1016E0000E94A603C3CF6091A0057091A105CE0111
:1016F0004D960E947B0965E971E0CE0147960E94F4
:10170000C503BE01695E7F4FCE014D960E94C9029E
:10171000019609F053C062E671E0CE0141960E9445
:10172000C503BE016F5E7F4FCE014D960E94C90278
:10173000FF24F394019609F4F12CCE0141960E9406
:10174000A603CE0147960E94A603F1103AC0CE012F
:101750004D960E94A6038091A0059091A105DC0101
:10176000ED91FC910084F185E02D0995892B09F01C
:10177000BACFB1E08B1A910809F490C065E671E028
:101780008091A0059091A1050E948A04E090A00597
:10179000F090A1052AE040E855E260E070E0C70162
:1017A0000E942D0463E773E0C7010E94180464E1FE
:1017B00070E080E090E00E947B06CDCFFF24F394A0
:1017C000C0CF40E855E260E070E08091A0059091C4
:1017D000A1050E94E40464E670E080E090E00E94CD
:1017E0007B06CE014D960E94A60361E771E087ED6E
:1017F00093E00E94760465E773E0CE018F960E9425
:10180000C5030E94600966E871E08091A00590918F
:10181000A1050E94760461E971E0CE0189960E94DB
:10182000C50368E971E0CE0183960E94C50365E9AE
:1018300071E0CE014D960E94C50365E773E0CE01CD
:1018400047960E94C503BE01635E7F4FCE0101969D
:101850000E94AB0328EE33E040E050E0BE016F5F32
:101860007F4FCE0141960E949809BE016F5E7F4F67
:10187000CE0147960E94E302CE0141960E94A60344
:10188000CE0101960E94A603BE01635E7F4FCE018A
:1018900047960E94C902019651F441C0E1E0AE1A98
:1018A000B10809F0C6CEF12C6DEB71E0FDC2BE01AE
:1018B0006D5D7F4FCE0147960E94C9024C01990F82
:1018C000AA08BB08BE01675D7F4FCE0147960E9404
:1018D000C902AFEF8A169A06AA06BA0601F18F3F2F
:1018E000BFEF9B07E1F02FA138A5B501A401420F7E
:1018F000531F611D711D9C01BE01695E7F4FCE01AA
:1019000001960E94AB00BE016F5F7F4FCE018F96A4
:101910000E94E302CE0101960E94A60309C040E0A6
:1019200050E065E773E0CE018F960E948503F12CAD
:10193000CE0147960E94A603CE014D960E94A603B3
:10194000CE0183960E94A603CE0189960E94A6032B
:10195000FF2049F08FA598A9009719F00E94CC109C
:1019600001C060E0162FCE018F960E94A603FF20D3
:1019700009F49FC2113009F4E4C065E773E0CE01B9
:101980004D960E94C5030E94600961EA71E0809152
:10199000A0059091A1050E948A040091A0051091D4
:1019A000A1052AE041E050E060E070E0C8010E943B
:1019B0002D0463E773E0C8010E9418046CEA71E02B
:1019C000CE0141960E94C50365E971E0CE01019602
:1019D0000E94C50308EE13E020E030E0AE014F5E48
:1019E0005F4FBE016F5F7F4FCE0147960E94F808A0
:1019F000BE01695E7F4FCE014D960E94E302CE018B
:101A000047960E94A603CE0101960E94A603CE012E
:101A100041960E94A60365E971E0CE0141960E94BD
:101A2000C503BE016F5E7F4FCE014D960E94C90275
:101A30000196B1F46CEA71E0CE0101960E94C503F3
:101A4000BE016F5F7F4FCE014D960E94C90211E02B
:101A5000019609F410E0CE0101960E94A60301C090
:101A60001F2DCE0141960E94A603CE014D960E94E5
:101A7000A603112309F41DC20E94600966EB71E000
:101A80008091A0059091A1050E94760465E971E01E
:101A9000CE0101960E94C50348EE53E060E070E07D
:101AA000CE0101960E94F109182FCE0101960E94E5
:101AB000A603112309F4FDC160ED77E080E090E01A
:101AC0000E947B060E94B5064B015C010E94B50690
:101AD000DC01CB0188199909AA09BB09883B9B4005
:101AE000A105B10508F0E5C10E94600962E671E058
:101AF0008091A0059091A1050E94760465E971E0AE
:101B0000CE0101960E94C50348EE53E060E070E00C
:101B1000CE0101960E94F109182FCE0101960E9474
:101B2000A603112339F06CED75E080E090E00E948F
:101B30007B0607C064E670E080E090E00E947B06D0
:101B4000C5CF60EC72E087ED93E00E947604BE01A1
:101B5000655C7F4FCE018F960E94AB03BE016F5B29
:101B60007F4FCE01C5960E94AB03BE01615D7F4FE2
:101B7000CE0189960E94AB03BE016B5C7F4FCE0104
:101B800083960E94AB0365E773E0CE014D960E94F9
:101B9000C5030E94600966ED72E08091A0059091F6
:101BA000A1050E948A04BE016D5D7F4F8091A00552
:101BB0009091A1050E940A0461EE72E08091A00557
:101BC0009091A1050E948A04BE01675D7F4F8091BC
:101BD000A0059091A1050E940A0463EE72E0809135
:101BE000A0059091A1050E94760465EE72E0CE01F9
:101BF00041960E94C50365E971E0CE0101960E94FD
:101C0000C50300E117E220E030E0AE014F5E5F4F18
:101C1000BE016F5F7F4FCE0147960E94F808BE015C
:101C2000695E7F4FCE014D960E94E302CE0147963A
:101C30000E94A603CE0101960E94A603CE01419602
:101C40000E94A60365E971E0CE0101960E94C503DA
:101C5000BE016F5F7F4FCE014D960E94C9028C017D
:101C6000CE0101960E94A603CE014D960E94A603C6
:101C7000CE0183960E94A603CE0189960E94A603F8
:101C8000CE01C5960E94A603CE018F960E94A603A0
:101C90000F3F1F4F09F465C161ED71E087ED93E0DF
:101CA0000E948A0465E773E0CE014D960E94C50349
:101CB0000E94600969EE71E08091A0059091A105F4
:101CC0000E94760462E370E080E090E00E947B0670
:101CD0008091A0059091A105DC01ED91FC9100841B
:101CE000F185E02D0995181619060CF031C16091A7
:101CF000A0057091A105CE0101960E947B09BE014D
:101D00006F5F7F4FCE014D960E94E302CE01019698
:101D10000E94A60362EF71E0CE0101960E94C50306
:101D2000BE016F5F7F4FCE014D960E94C9028C01AC
:101D3000CE0101960E94A6030F3F1F4F49F264E6B1
:101D400070E080E090E00E947B06A9A0BAA092E03B
:101D5000A91AB10862EF71E0CE0141960E94C50355
:101D6000BE016F5E7F4FCE014D960E94C902AC014D
:101D70004C5F5F4F9501BE01635E7F4FCE0147967A
:101D80000E94AB0065EF71E0CE0101960E94C50391
:101D90008B8D9C8D0F89188DAD80BE80A80EB91ECD
:101DA0000115110509F4E3C0892B09F0BEC0BE017D
:101DB0006F5F7F4FCE0183960E94AB03CE010196E9
:101DC0000E94A603CE0147960E94A603CE0141962B
:101DD0000E94A603CE014D960E94A6036BA17CA192
:101DE00087ED93E00E947604CE0183960E94A603BD
:101DF0000E94600965E773E0CE0141960E94C50329
:101E000061E172E08091A0059091A1050E947604A5
:101E100062E370E080E090E00E947B068091A00584
:101E20009091A105DC01ED91FC910084F185E02DFC
:101E30000995181619060CF092C06091A0057091D2
:101E4000A105CE0101960E947B09BE016F5F7F4F05
:101E5000CE0141960E94E302CE0101960E94A603A4
:101E600065E971E0CE0101960E94C503BE016F5F76
:101E70007F4FCE0141960E94C9028C01CE0101968E
:101E80000E94A6030F3F1F4F49F264E670E080E016
:101E900090E00E947B06CE0141960E94A603FF209F
:101EA00009F462C06BE372E087ED93E00E94760470
:101EB00007C06AE672E087ED93E00E947604F12C99
:101EC000CE018F5B9F4F0E94A603CE01CB960E944E
:101ED000A603F11009C061E972E087ED93E00E946A
:101EE0007604FFCF0E94FF01809100018823D1F387
:101EF0001092000161EC75E0CE0101960E94AB03E7
:101F0000CE0101960E94C106CE0101960E94A60351
:101F100060EA7FE080E090E00E947B0668EB72E080
:101F200087ED93E00E947604DDCFB501CE010196E6
:101F30000E941C038823D9F029813A818D819E81DA
:101F4000B801820F931F0E94B313BE82AD822FCFC0
:101F50006AEF71E0CE0183960E94C5033BCFF12C5E
:101F60009ACF6DE172E0A7CF6AE472E09DCFCE0117
:101F700001960E9473031BCF8DE291E09093A3051D
:101F80008093A20582EA95E00E94AF0281EC95E081
:101F90000C94A603CF92DF92EF92FF92CF93DF9340
:101FA0001092DA031092D90368EEC62E63E0D62EA3
:101FB000E12CF12CC092DB03D092DC03E092DD0334
:101FC000F092DE038BE191E09093D8038093D703E6
:101FD00085EC90E09093E4038093E30384EC90E03D
:101FE0009093E6038093E50380EC90E09093E80300
:101FF0008093E70381EC90E09093EA038093E903F8
:1020000082EC90E09093EC038093EB0386EC90E0FD
:102010009093EE038093ED031092F0031092F1037E
:102020001092F2031092F3036EE773E081EC95E0F7
:102030000E94C5031092A5051092A405C092A605A2
:10204000D092A705E092A805F092A9058DE291E053
:102050009093A3058093A2051092B9051092B8053C
:102060001092BB051092BA051092BD051092BC05E6
:102070001092BF051092BE056091C0056E7F6D7F06
:102080006093C0056695617081E068278BE00E94CF
:102090002F06E5EFF0E02491E1EEF0E08491882353
:1020A00099F090E0880F991FFC01EE53FF4FA59126
:1020B000B491FC01E854FF4F859194918FB7F89447
:1020C000EC91E22BEC938FBFE5EFF0E0E491E0932D
:1020D000B205E1EEF0E0E491F0E0EE0FFF1FE8540E
:1020E000FF4F859194919093B4058093B305E4EFED
:1020F000F0E02491E0EEF0E084918823C1F090E0DC
:10210000880F991FFC01EE53FF4FC591D491FC013C
:10211000E854FF4FA591B4919FB7F8948881E22FBE
:10212000E0958E2388838C91E823EC939FBF809168
:10213000C00581FD04C061E08AE00E942F068AE0AC
:102140008093AE05E4EFF0E0E491E093AF05E0EEBC
:10215000F0E0E491F0E0EE0FFF1FE453FF4F8591B4
:1021600094919093B1058093B005E4E7F4E08CE29C
:1021700091E0DF019C011D9221503040E1F782EA9D
:1021800095E09093A1058093A005DF91CF91FF90FA
:10219000EF90DF90CF9008951F93FC019927882737
:1021A000BC01E89411911032E9F3193010F01E309F
:1021B000C8F31B3251F01D3249F4689406C00E94E6
:1021C000F310610F711D811D911D119110531A3073
:1021D000B0F33EF490958095709561957F4F8F4F49
:1021E0009F4F1F910895592F482F372F262F660F85
:1021F000771F881F991F660F771F881F991F620F0F
:10220000731F841F951F660F771F881F991F0895DE
:102210002F923F924F925F926F927F928F929F92F6
:10222000AF92BF92CF92DF92EF92FF920F931F93E4
:10223000CF93DF93CDB7DEB7CA1BDB0B0FB6F89495
:10224000DEBF0FBECDBF09942A88398848885F84D5
:102250006E847D848C849B84AA84B984C884DF8046
:10226000EE80FD800C811B81AA81B981CE0FD11D2A
:102270000FB6F894DEBF0FBECDBFED01089597FBFA
:10228000072E16F4009407D077FD09D00E94941110
:1022900007FC05D03EF4909581959F4F0895709569
:1022A00061957F4F0895A1E21A2EAA1BBB1BFD0169
:1022B0000DC0AA1FBB1FEE1FFF1FA217B307E40725
:1022C000F50720F0A21BB30BE40BF50B661F771F7D
:1022D000881F991F1A9469F760957095809590955D
:1022E0009B01AC01BD01CF010895052E97FB1EF4A3
:1022F00000940E948C1157FD07D00E94531107FCD7
:1023000003D04EF40C948C11509540953095219546
:102310003F4F4F4F5F4F0895909580957095619511
:102320007F4F8F4F9F4F0895AA1BBB1B51E107C0E2
:10233000AA1FBB1FA617B70710F0A61BB70B881F55
:10234000991F5A95A9F780959095BC01CD010895E4
:10235000EE0FFF1F0590F491E02D0994CF93DF93CA
:102360008230910510F482E090E0E091C905F0918F
:10237000CA0520E030E0C0E0D0E0309711F14081A4
:10238000518148175907C0F04817590761F48281F5
:102390009381209719F09B838A832BC09093CA0561
:1023A0008093C90526C02115310519F0421753073E
:1023B00018F49A01BE01DF01EF010280F381E02DE4
:1023C000DCCF2115310509F1281B390B24303105EB
:1023D00090F412968D919C9113976115710521F0DF
:1023E000FB019383828304C09093CA058093C9053F
:1023F000FD01329644C0FD01E20FF31F81939193DA
:10240000225031092D933C933AC02091C705309159
:10241000C805232B41F4209103013091040130932E
:10242000C8052093C70520910101309102012115B3
:10243000310541F42DB73EB7409105015091060199
:10244000241B350BE091C705F091C805E217F3078F
:10245000A0F42E1B3F0B2817390778F0AC014E5F14
:102460005F4F2417350748F04E0F5F1F5093C80584
:102470004093C7058193919302C0E0E0F0E0CF0163
:10248000DF91CF9108950F931F93CF93DF93009720
:1024900009F48CC0FC013297138212820091C905A5
:1024A0001091CA050115110581F420813181820F37
:1024B000931F2091C7053091C8052817390779F572
:1024C000F093C805E093C70571C0D80140E050E023
:1024D000AE17BF0750F412962D913C911397AD01A2
:1024E0002115310509F1D901F3CF9D01DA013383BB
:1024F000228360817181860F971F8217930769F489
:10250000EC0128813981260F371F2E5F3F4F318321
:1025100020838A819B8193838283452B29F4F093C6
:10252000CA05E093C90542C01396FC93EE93129737
:10253000ED01499159919E01240F351FE217F307D0
:1025400071F480819181840F951F029611969C935E
:102550008E938281938113969C938E931297E0E0E1
:10256000F0E0D80112968D919C911397009719F085
:10257000F8018C01F6CF8D919C9198012E5F3F4F11
:10258000820F931F2091C7053091C805281739077E
:1025900069F4309729F41092CA051092C90502C057
:1025A000138212821093C8050093C705DF91CF9163
:1025B0001F910F910895A0E0B0E0E1EEF2E10C94DC
:1025C0000C11EC01009721F4CB010E94AE11B8C0B0
:1025D000FC01E60FF71F9C0122503109E217F307B7
:1025E00008F4ACC0D9010D911C911197061717077B
:1025F000B0F00530110508F49FC0C8010497861794
:10260000970708F499C002501109061B170B019394
:1026100011936D937C93CF010E9443128DC05B0197
:10262000A01AB10A4C01800E911EA091C905B0916B
:10263000CA0540E050E0E12CF12C109709F44AC0A3
:10264000A815B905D1F56D907C901197630182E0D2
:10265000C80ED11CCA14DB0480F1A3014A195B091E
:102660006A0182E0C80ED11C1296BC901297139694
:10267000AC91B5E0CB16D10440F0B282A383518374
:102680004083D9016D937C930AC00E5F1F4FC30135
:10269000800F911FF90191838083EB2DFA2FE114B4
:1026A000F10431F0D7011396FC93EE93129744C0D6
:1026B000F093CA05E093C9053FC08D919C91119795
:1026C0004817590708F4AC017D0112960D90BC9192
:1026D000A02DB3CF8091C7059091C80588159905A5
:1026E000E1F446175707C8F4809101019091020167
:1026F000009741F48DB79EB74091050150910601B6
:10270000841B950BE817F907C8F4F093C805E0930C
:10271000C705F901718360830FC0CB010E94AE1120
:102720007C01009759F0A801BE010E94AA13CE01B6
:102730000E944312C70104C0CE0102C080E090E0B5
:10274000CDB7DEB7EEE00C94281181E090E0F8946C
:102750000C94D413FB01DC0102C001900D92415096
:102760005040D8F70895FB01DC0101900D92002044
:10277000E1F70895FB0151915523A9F0BF01DC0158
:102780004D9145174111E1F759F4CD010190002019
:1027900049F04D9140154111C9F3FB014111EFCFB3
:1027A00081E090E00197089510E0C0E8D0E004C017
:1027B000FE010E94A8112196C138D107C9F7F894EB
:0227C000FFCF49
:1027C200010000CB05800080250000004B000000C6
:1027D200E1000000C2010000000000960103012E8A
:1027E20001DD015F013D01510100000000220203F1
:1027F20001C602210276028E020902426567696EF3
:1028020000494E4E424F5832363039303030363130
:10281200370048312054656C656B6F6D20656361CC
:10282200640041540041542B43494F424155443DB9
:1028320000426175647261746520736574207375FA
:1028420063636573730041542B43574D4F44453FB7
:10285200000D0A0D0A4F4B002B43574D4F44453A8A
:102862000041542B43574D4F44453D006E6F20634A
:1028720068616E67650041542B5253540042617582
:10288200647261746520736574206661696C656445
:10289200004A6F696E696E672041502073756363E9
:1028A20065737366756C2C200041542B4349465363
:1028B200520049500049503A2000436F756C646ED3
:1028C20027742067657420495020616472657373B0
:1028D2000041542B4349504D55583D30004A6F69D1
:1028E2006E204150206661696C7572652C205265BC
:1028F20073657420426F617264210053696E676C64
:1029020065204D6F6465204F4B0053696E676C659F
:10291200204D6F6465204572726F722C2052657370
:10292200657420426F617264210053746174696F2F
:102932006E202B20736F66744150202D20457272D9
:102942006F722C20526573657420426F617264212C
:10295200005769666920496E6974206661696C6511
:10296200642E20436865636B20636F6E66696775CA
:10297200726174696F6E2E00552069662D75210093
:1029820053746174696F6E202B20736F66744150AB
:10299200202D204F4B0041542B43574A41503D229A
:1029A20000222C22004641494C005443500041541D
:1029B2002B43495053544152543D2200222C004192
:1029C2004C524541445920434F4E4E4543540045D5
:1029D20052524F520041542B43495053454E443DAD
:1029E200003E00474554202F706F7765722F736544
:1029F20072766963652F706F7765722F372048543E
:102A020054502F312E310D0A486F73743A203139E8
:102A1200322E3136382E312E373A393039300D0ACE
:102A2200436F6E6E656374696F6E3A20636C6F7389
:102A3200650D0A0D0A0053454E44204F4B003139B3
:0A2A4200322E3136382E312E3700C7
:00000001FF
