:100000000C9481000C94A9000C94A9000C94900508
:100010000C9490050C9490050C94A9000C94A900E4
:100020000C94A9000C94A9000C94A9000C94A900AC
:100030000C94A9000C94A9000C94A9000C94A9009C
:100040000C943D080C94A9000C94B2040C948C04FC
:100050000C94A9000C94A9000C94A9000C94A9007C
:100060000C94A9000C94A9006275666665722069FB
:10007000732066756C6C2100637265617465207411
:100080006370202D204552524F52006E6F742073C2
:10009000656E740063726561746520746370202DF1
:1000A000204F4B000000000800020100000304077D
:1000B00000000000000000000000000025002800F3
:1000C0002B0000000000240027002A000000000090
:1000D000230026002900040404040404040402028A
:1000E00002020202030303030303010204081020B7
:1000F0004080010204081020010204081020990F1A
:100100008B0F11241FBECFEFD8E0DEBFCDBF25E09F
:10011000A6EAB3E001C01D92A73EB207E1F713E0E3
:10012000A0E0B1E0E0E6F7E202C005900D92A63A49
:10013000B107D9F710E0C0E8D0E004C02197FE0174
:100140000E947711CF37D107C9F70E9487080C9416
:10015000A3130C9400000895CF92DF92EF92FF92C8
:100160000F931F93CF93DF936C017A018B01C0E053
:10017000D0E0CE15DF0589F0D8016D918D01D60153
:10018000ED91FC910190F081E02DC6010995892B3C
:1001900011F47E0102C02196ECCFC701DF91CF910F
:1001A0001F910F91FF90EF90DF90CF900895FC0189
:1001B000538D448D252F30E0842F90E0821B930BCC
:1001C000541710F0CF96089501970895FC01918D72
:1001D000828D981761F0828DDF01A80FB11D5D96A9
:1001E0008C91928D9F5F9F73928F90E008958FEF17
:1001F0009FEF0895FC01918D828D981731F0828DCB
:10020000E80FF11D858D90E008958FEF9FEF089521
:10021000FC01918D228D892F90E0805C9F4F821B85
:1002200091098F73992708958AEE93E00E9408013F
:1002300021E0892B09F420E0822F0895FC01848DB0
:10024000DF01A80FB11DA35ABF4F2C91848D90E000
:1002500001968F739927848FA689B7892C93A089DB
:10026000B1898C9180648C93938D848D981306C092
:100270000288F389E02D80818F7D80830895EF923D
:10028000FF920F931F93CF93DF93EC0181E0888F50
:100290009B8D8C8D981305C0E889F989808185FD37
:1002A00024C0F62E0B8D10E00F5F1F4F0F73112728
:1002B000E02E8C8DE8120CC00FB607FCFACFE8894F
:1002C000F989808185FFF5CFCE010E941E01F1CF13
:1002D0008B8DFE01E80FF11DE35AFF4FF0820B8F6B
:1002E000EA89FB898081806207C0EE89FF8960838B
:1002F000E889F98980818064808381E090E0DF91E2
:10030000CF911F910F91FF90EF900895CF93DF93BE
:10031000EC01888D8823C9F0EA89FB89808185FDFD
:1003200005C0A889B9898C9186FD0FC00FB607FC5E
:10033000F5CF808185FFF2CFA889B9898C9185FF9F
:10034000EDCFCE010E941E01E7CFDF91CF9108953E
:1003500080E090E0892B29F00E94140181110C9417
:10036000000008952091E8033091E9032817390728
:1003700071F49091E7038091E603981741F0E091C2
:10038000E703F0E0EA55FC4F808190E008958FEF9D
:100390009FEF089508951F93CF93DF93DC015C9640
:1003A0002D913C915D972115310539F481E090E064
:1003B00013969C938E9312973DC05196ED91FC91AC
:1003C000529750969C915097892F80951FB75E96B3
:1003D0004C915E9741FB772770F941FD6095F89449
:1003E0004081772311F0492B01C048234083E90164
:1003F0002197F1F748E0508160FF02C0592B01C0FE
:1004000058235083E9012197F1F76695415099F7F8
:10041000772321F090818923808303C08081982BEA
:1004200090831FBF5C968D919C915D970197F1F72A
:1004300021E030E0C901DF91CF911F910895209113
:10044000E8033091E9032817390771F48091E60336
:100450002091E70390E0805C9F4F821B910960E44C
:1004600070E00E940E11089580E090E008952091C0
:10047000E8033091E90328173907B9F49091E703AD
:100480008091E603981789F0E091E703F0E0EA55E0
:10049000FC4F80812091E70330E02F5F3F4F2F73A7
:1004A00033272093E70390E008958FEF9FEF08959F
:1004B000E091E803F091E903E817F90769F4A389EB
:1004C000B4899C918589809589238C931092E90346
:1004D0001092E80381E0089580E00895089580E097
:1004E00090E008950E947413CF93DF93FC01248160
:1004F0003581232B71F0FB01DC01CD91DC91608112
:100500007181CE010E948913009719F08C1B9D0BFD
:1005100002C08FEF9FEFDF91CF9108950F931F934C
:10052000CF93DF938C01EB01FC01808191810097D7
:10053000B1F0688179816115710579F0428153814B
:100540002C813D814217530740F00E9482138C8119
:100550009D81F8019583848313C00E9412128881C3
:100560009981F801918380838A819B81938382831F
:100570008C819D8195838483198218821B821A82C3
:100580001D821C82DF91CF911F910F9108950F93CF
:100590001F93CF93DF93EC0188819981009729F015
:1005A0002A813B812617370788F48B016F5F7F4FC5
:1005B0000E94AA12009761F0998388831B830A83A3
:1005C0002C813D81232B11F4FC01108281E001C0BC
:1005D00080E0DF91CF911F910F910895EF92FF92EC
:1005E0000F931F93CF93DF9300D0CDB7DEB78C016D
:1005F00069831A82FC01E480F580FFEFEF1AFF0A9D
:10060000B7010E94C702882381F0F801208131815F
:1006100084819581BE016F5F7F4F820F931F0E947F
:100620008213F801F582E48281E00F900F90DF9150
:10063000CF911F910F91FF90EF900895CF93DF938B
:10064000EC0188819981009711F00E9412121982A1
:1006500018821D821C821B821A82DF91CF9108951D
:10066000EF92FF920F931F93CF93DF93EC017B01E7
:100670008A01BA010E94C702811104C0CE010E9402
:100680001E0307C01D830C83B701888199810E94D6
:100690008213CE01DF91CF911F910F91FF90EF90C8
:1006A0000895FC01808191810C941212FB01DC0100
:1006B00011961C921E9213961C921E9212971596DA
:1006C0001C921E9214978617970749F060817181DA
:1006D0006115710521F0448155810C943003089512
:1006E000FC0111821082138212821582148261151C
:1006F000710551F0FB0101900020E9F73197AF013E
:10070000461B570B0C9430030895BF92CF92DF9293
:10071000EF92FF920F931F93CF93DF937C016B01B6
:10072000EA0189012417350720F48D2FE901042FF0
:10073000182F61E573E0C7010E947003D60114967B
:100740008D919C911597C817D90748F58017910787
:1007500008F48C01D601ED91FC911197E00FF11F87
:10076000B08010824D915C91BA016C0F7D1F6115B4
:10077000710561F0FB0101900020E9F73197AF01AD
:10078000461B570BC7010E94300303C0C7010E94DC
:100790001E03D601ED91FC91E00FF11FB082C7015D
:1007A000DF91CF911F910F91FF90EF90DF90CF904D
:1007B000BF9008950F931F93CF93DF93EC010E9496
:1007C0001E07688779878A879B87E881F981028479
:1007D000F385E02DCE01099597FF17C00E941E07F3
:1007E000088519852A853B85DC01CB01801B910B8F
:1007F000A20BB30B0C811D812E813F8180179107C5
:10080000A207B30710F38FEF9FEFDF91CF911F91F6
:100810000F910895DC01ED91FC91DB0114964D914F
:100820005C9115976D917C910280F381E02D099484
:100830006115710579F0FB0101900020E9F731970E
:10084000AF01461B570BDC01ED91FC910280F38157
:10085000E02D099480E090E008954F925F926F92AE
:100860007F92EF92FF920F931F93CF93DF93CDB7B9
:10087000DEB7A1970FB6F894DEBF0FBECDBF7C01E7
:10088000FA01CB0119A2223008F42AE08E010F5D93
:100890001F4F422E512C612C712CBF01A3019201DC
:1008A0000E942211F901CA01015011096A3014F4A1
:1008B000605D01C0695CD8016C93232B242B252B30
:1008C00061F7B801C7010E941804A1960FB6F89409
:1008D000DEBF0FBECDBFDF91CF911F910F91FF9073
:1008E000EF907F906F905F904F9008950F931F93BC
:1008F000CF93DF93EC010E9418048C016FE473E046
:10090000CE010E941804800F911FDF91CF911F919B
:100910000F9108950C9418041F920F920FB60F9226
:1009200011242F933F934F935F936F937F938F93F4
:100930009F93AF93BF93EF93FF938AEE93E00E9450
:100940001E01FF91EF91BF91AF919F918F917F9188
:100950006F915F914F913F912F910F900FBE0F902C
:100960001F9018951F920F920FB60F9211242F937C
:100970008F939F93EF93FF93E091FA03F091FB0322
:100980008081E0910004F091010482FD12C0908109
:10099000809103048F5F8F7320910404821751F0BC
:1009A000E0910304F0E0E651FC4F958F809303043F
:1009B00001C08081FF91EF919F918F912F910F90B6
:1009C0000FBE0F901F901895CF93DF93EC019A0103
:1009D000AB011B8E1A8E198E188E1F8A1E8A60E03C
:1009E00079E08DE390E00E944411F9012430310553
:1009F00018F0C901039702C081E090E09D8F8C8FB1
:100A00006C85663108F069C0C90196958795843177
:100A1000910510F0439702C081E090E09F8B8E8B90
:100A2000369718F0C901059702C081E090E0998FD0
:100A3000888FC901880F991F280F391F3695279570
:100A4000369527952D30310518F02C50310902C00C
:100A500021E030E03B8F2A8F90916800683050F0A1
:100A600021E06E3008F420E081E001C0880F2A9573
:100A7000EAF701C084E0892B809368009C85983058
:100A800038F09E3040F0963148F020E030E008C069
:100A90002DE630E005C02BE630E002C02CE630E069
:100AA0003C8B2B8B983030F481E001C0880F9A95F5
:100AB000EAF70EC0292F30E09E3018F42850310993
:100AC00002C02E50310981E001C0880F2A95EAF753
:100AD0008D8B8C8D9D8D0197F1F78A8D9B8D892B48
:100AE000E1F08091E8039091E9038C179D07A9F04C
:100AF000009711F00E9458028E8D8E7F8E8F10927B
:100B0000E6031092E703D093E903C093E803EB896F
:100B1000FC8990818D89892B8083DF91CF91089505
:100B20001F920F920FB60F9211242F933F934F9362
:100B30005F936F937F938F939F93AF93BF93EF9345
:100B4000FF93E091E803F091E903309709F451C075
:100B5000968DA685B785858591FF04C09C918923D4
:100B600029F447C09C91892309F043C0A389B48923
:100B70009C918589809589238C9386899789019793
:100B8000F1F7608D718DA685B785558538E020E039
:100B9000CB010197F1F7822F90E095958795282F4B
:100BA0004C91452309F02068315091F7868D81FDE5
:100BB00020958091E60390E001968F7399273091FC
:100BC000E703381749F0A091E603B0E0AA55BC4FFF
:100BD0002C938093E60303C0868D8160868F828D7F
:100BE000938D0197F1F7A389B4899C918589892B0D
:100BF0008C93FF91EF91BF91AF919F918F917F91D6
:100C00006F915F914F913F912F910F900FBE0F9079
:100C10001F90189590E0FC01EC55FF4F3491FC01BA
:100C2000E651FF4F2491FC01EA52FF4FE491EE237D
:100C300009F43BC0332339F1333091F038F43130CB
:100C4000A9F0323001F584B58F7D12C0373091F0B4
:100C50003830A1F03430B9F4809180008F7D03C02A
:100C6000809180008F77809380000DC084B58F774E
:100C700084BD09C08091B0008F7703C08091B0001F
:100C80008F7D8093B000F0E0EE0FFF1FE854FF4F20
:100C9000A591B4918FB7F894EC91611103C02095A0
:100CA0002E2301C02E2B2C938FBF08953FB7F894AD
:100CB0008091DF059091E005A091E105B091E205FA
:100CC00026B5A89B05C02F3F19F00196A11DB11DA7
:100CD0003FBFBA2FA92F982F8827820F911DA11DE2
:100CE000B11DBC01CD0142E0660F771F881F991F1F
:100CF0004A95D1F708958091B3059091B405DC0130
:100D0000ED91FC910084F185E02D099518161906E6
:100D100064F48091B3059091B405DC01ED91FC91F0
:100D20000284F385E02D0995E6CF08950F931F9374
:100D3000CF93DF93EC018B0161E573E00E947003B8
:100D4000C8010E94DA0397FD08C08A30910529F096
:100D5000682FCE010E94EE02F3CFCE01DF91CF913A
:100D60001F910F9108950F931F93CF93DF938C01E1
:100D7000C0E0D0E0F801EC0FFD1F6491662371F034
:100D8000E091EA03F091EB030190F081E02D8AEE0F
:100D900093E00995892B11F02196ECCFCE01DF91DC
:100DA000CF911F910F910895CF93DF930E94B306C7
:100DB000EC016FE473E08AEE93E00E9418048C0F5C
:100DC0009D1FDF91CF9108958F929F92AF92BF9216
:100DD000CF92DF92EF92FF926B017C010E94560648
:100DE0004B015C01C114D104E104F104F1F00E9453
:100DF0005606DC01CB0188199909AA09BB09883E6E
:100E00009340A105B10570F321E0C21AD108E108B1
:100E1000F10888EE880E83E0981EA11CB11CC11455
:100E2000D104E104F10419F7DDCFFF90EF90DF90DA
:100E3000CF90BF90AF909F908F9008952FB7F89468
:100E40006091DB057091DC058091DD059091DE05F8
:100E50002FBF08954F925F926F927F928F929F92D1
:100E6000AF92BF92CF92DF92EF92FF920F931F93B8
:100E7000CF93DF93EC015B014A016801790161E5E1
:100E800073E00E9470030E941E072B013C010E9428
:100E90001E07DC01CB0184199509A609B7098C1539
:100EA0009D05AE05BF0560F58091B3059091B40531
:100EB000DC01ED91FC910084F185E02D0995181677
:100EC000190694F48091B3059091B405DC01ED917D
:100ED000FC910284F385E02D0995882329F3682F7E
:100EE000CE010E94EE02E0CFB501CE010E94740255
:100EF000019631F4B401CE010E947402019639F2D8
:100F0000CE01DF91CF911F910F91FF90EF90DF9075
:100F1000CF90BF90AF909F908F907F906F905F9099
:100F20004F9008958F929F92AF92BF92CF92DF928F
:100F3000EF92FF920F931F93CF93DF93EC018B01FE
:100F400069017A0161E573E00E9470030E941E0747
:100F50004B015C010E941E07DC01CB018819990935
:100F6000AA09BB098C159D05AE05BF0530F580911A
:100F7000B3059091B405DC01ED91FC910084F185FD
:100F8000E02D09951816190694F48091B3059091F7
:100F9000B405DC01ED91FC910284F385E02D099507
:100FA000882329F3682FCE010E94EE02E0CFB8011A
:100FB000CE010E947402019669F2CE01DF91CF91B9
:100FC0001F910F91FF90EF90DF90CF90BF90AF9067
:100FD0009F908F9008950F931F93CF93DF93CDB77A
:100FE000DEB766970FB6F894DEBF0FBECDBF8C019B
:100FF0009A01AB0161E573E0CE010D962B8B3C8B22
:101000004D8B5E8B0E947003B801CE0107960E9443
:1010100056032B893C894D895E89BE01695F7F4FEC
:10102000CE0101960E949207BE016F5F7F4FCE01F5
:101030000D960E948E02CE0101960E945103CE01B0
:1010400007960E945103B801CE010D960E947402CA
:101050008C01CE010D960E94510381E00F3F1F4F7E
:1010600009F480E066960FB6F894DEBF0FBECDBFE0
:10107000DF91CF911F910F9108951F920F920FB69C
:101080000F9211242F933F938F939F93AF93BF930E
:101090008091DB059091DC05A091DD05B091DE0526
:1010A0003091DA0523E0230F2D3720F40196A11D9E
:1010B000B11D05C026E8230F0296A11DB11D209386
:1010C000DA058093DB059093DC05A093DD05B093F2
:1010D000DE058091DF059091E005A091E105B091DA
:1010E000E2050196A11DB11D8093DF059093E005F7
:1010F000A093E105B093E205BF91AF919F918F91CD
:101100003F912F910F900FBE0F901F901895CF9386
:10111000DF93CDB7DEB7C654D1090FB6F894DEBF62
:101120000FBECDBF789484B5826084BD84B58160E4
:1011300084BD85B5826085BD85B5816085BD8091A2
:101140006E00816080936E0010928100809181001A
:101150008260809381008091810081608093810012
:10116000809180008160809380008091B1008460D4
:101170008093B1008091B00081608093B000809135
:101180007A00846080937A0080917A0082608093F4
:101190007A0080917A00816080937A0080917A0051
:1011A000806880937A001092C100E091FA03F09178
:1011B000FB0382E08083E091F603F091F703108255
:1011C000E091F803F091F90300E10083109202042A
:1011D000E091FE03F091FF0386E08083E091FC0341
:1011E000F091FD03808180618083E091FC03F091A8
:1011F000FD03808188608083E091FC03F091FD0312
:10120000808180688083E091FC03F091FD03808100
:101210008F7D80836AE371E08AEE93E00E9476041A
:1012200060E471E0CE01CB960E94700361E571E04D
:10123000CE018F5B9F4F0E9470030E947B060E942D
:101240001E07E6E0F1E0DE01119601900D920A958D
:10125000E1F795E0A92EB12CCE0101964C01F401E5
:1012600041915191619171914F018091B30590919C
:10127000B4050E94E40461E671E08091B3059091A9
:10128000B4050E94760464E170E080E090E00E9482
:10129000E4068091B3059091B405DC01ED91FC91D9
:1012A0000084F185E02D0995892BC9F26091B30581
:1012B0007091B405CE0147960E94960664E971E0EC
:1012C000CE0141960E947003BE016F5E7F4FCE013A
:1012D00047960E9474023C01CE0141960E94510340
:1012E0006720609471F06FE070E080E090E00E9411
:1012F000E406CE0147960E94510385E0882E912C8A
:1013000050C0CE0147960E945103C3CF6091B305F0
:101310007091B405CE014D960E94960664E971E085
:10132000CE0147960E947003BE01695E7F4FCE01D9
:101330004D960E947402019609F053C061E671E077
:10134000CE0141960E947003BE016F5E7F4FCE01B9
:101350004D960E947402FF24F394019609F4F12C37
:10136000CE0141960E945103CE0147960E9451033F
:10137000F1103AC0CE014D960E9451038091B30501
:101380009091B405DC01ED91FC910084F185E02D94
:101390000995892B09F0BACFB1E08B1A910809F4AD
:1013A00090C064E671E08091B3059091B4050E940D
:1013B0008A046090B3057090B4052AE040E855E2D5
:1013C00060E070E0C3010E942D046FE473E0C3018C
:1013D0000E94180464E170E080E090E00E94E4065E
:1013E000CDCFFF24F394C0CF40E855E260E070E039
:1013F0008091B3059091B4050E94E40464E670E026
:1014000080E090E00E94E406CE014D960E945103D8
:1014100060E771E08AEE93E00E94760461E573E094
:10142000CE018F960E9470030E947B0665E871E0F2
:101430008091B3059091B4050E94760460E971E053
:10144000CE0189960E94700367E971E0CE01839610
:101450000E94700364E971E0CE014D960E94700312
:1014600061E573E0CE0147960E947003BE01635EA2
:101470007F4FCE0101960E94560328EE33E040E0F4
:1014800050E0BE016F5F7F4FCE0141960E949207F0
:10149000BE016F5E7F4FCE0147960E948E02CE0145
:1014A00041960E945103CE0101960E945103BE0154
:1014B000635E7F4FCE0147960E947402019651F4FD
:1014C00041C0E1E0AE1AB10809F0C6CEF12C6CEBD8
:1014D00071E0FCC2BE016D5D7F4FCE0147960E9458
:1014E00074024C01990FAA08BB08BE01675D7F4FCB
:1014F000CE0147960E947402AFEF8A169A06AA069A
:10150000BA0601F18F3FBFEF9B07E1F02FA138A58D
:10151000B501A401420F531F611D711D9C01BE0145
:10152000695E7F4FCE0101960E948503BE016F5F09
:101530007F4FCE018F960E948E02CE0101960E94AF
:10154000510309C040E050E061E573E0CE018F96A1
:101550000E943003F12CCE0147960E945103CE0128
:101560004D960E945103CE0183960E945103CE01F5
:1015700089960E945103FF2049F08FA598A90097F2
:1015800019F00E949B1001C060E0162FCE018F96CB
:101590000E945103FF2009F49EC2113009F4E4C0F7
:1015A00061E573E0CE014D960E9470030E947B06B8
:1015B00060EA71E08091B3059091B4050E948A04BD
:1015C0000091B3051091B4052AE041E050E060E0DD
:1015D00070E0C8010E942D046FE473E0C8010E940E
:1015E00018046BEA71E0CE0141960E94700364E931
:1015F00071E0CE0101960E94700308EE13E020E036
:1016000030E0AE014F5E5F4FBE016F5F7F4FCE0196
:1016100047960E942A07BE01695E7F4FCE014D9614
:101620000E948E02CE0147960E945103CE01019680
:101630000E945103CE0141960E94510364E971E07A
:10164000CE0141960E947003BE016F5E7F4FCE01B6
:101650004D960E9474020196B1F46BEA71E0CE01DE
:1016600001960E947003BE016F5F7F4FCE014D96C1
:101670000E94740211E0019609F410E0CE01019677
:101680000E94510301C01F2DCE0141960E945103BB
:10169000CE014D960E945103112309F41CC20E94F1
:1016A0007B0665EB71E08091B3059091B4050E94D3
:1016B000760464E971E0CE0101960E94700348EE61
:1016C00053E060E070E0CE0101960E94EB07182F16
:1016D000CE0101960E945103112309F4FCC160ED73
:1016E00077E080E090E00E94E4060E941E074B0134
:1016F0005C010E941E07DC01CB0188199909AA0927
:10170000BB09883B9B40A105B10508F0E4C10E94DC
:101710007B0661E671E08091B3059091B4050E946B
:10172000760464E971E0CE0101960E94700348EEF0
:1017300053E060E070E0CE0101960E94EB07182FA5
:10174000CE0101960E945103112339F06CED75E032
:1017500080E090E00E94E40607C064E670E080E06C
:1017600090E00E94E406C5CF61E773E08AEE93E063
:101770000E947604BE01655C7F4FCE018F960E9469
:101780005603BE016F5B7F4FCE01C5960E94560384
:10179000BE01615D7F4FCE0189960E945603BE0156
:1017A0006B5C7F4FCE0183960E94560361E573E028
:1017B000CE014D960E9470030E947B0667E873E09D
:1017C0008091B3059091B4050E948A04BE016D5DBD
:1017D0007F4F8091B3059091B4050E940A0465ED96
:1017E00072E08091B3059091B4050E948A04BE0115
:1017F000675D7F4F8091B3059091B4050E940A0404
:1018000067ED72E08091B3059091B4050E94760473
:1018100062E973E0CE0141960E94700364E971E0D1
:10182000CE0101960E94700300E117E220E030E053
:10183000AE014F5E5F4FBE016F5F7F4FCE01479697
:101840000E942A07BE01695E7F4FCE014D960E941D
:101850008E02CE0147960E945103CE0101960E944E
:101860005103CE0141960E94510364E971E0CE011B
:1018700001960E947003BE016F5F7F4FCE014D96AF
:101880000E9474028C01CE0101960E945103CE0188
:101890004D960E945103CE0183960E945103CE01C2
:1018A00089960E945103CE01C5960E945103CE0134
:1018B0008F960E9451030F3F1F4F09F421C360ED23
:1018C00071E08AEE93E00E948A0461E573E0CE0144
:1018D0004D960E9470030E947B0668EE71E0809135
:1018E000B3059091B4050E94760462E370E080E055
:1018F00090E00E94E4068091B3059091B405DC016C
:10190000ED91FC910084F185E02D099518161906DA
:101910000CF0EDC26091B3057091B405CE01019653
:101920000E949606BE016F5F7F4FCE014D960E94CA
:101930008E02CE0101960E94510361EF71E0CE014B
:1019400001960E947003BE016F5F7F4FCE014D96DE
:101950000E9474028C01CE0101960E9451030F3F38
:101960001F4F49F264E670E080E090E00E94E406D8
:1019700009A11AA10250110961EF71E0CE0141964F
:101980000E947003BE016F5E7F4FCE014D960E9494
:101990007402AC014C5F5F4F9801BE01635E7F4FE4
:1019A000CE0147960E94850364EF71E0CE01019657
:1019B0000E9470038B8D9C8DAF88B88C0D811E8129
:1019C000080F191FA114B10409F4A0C2892B09F052
:1019D0007BC2BE016F5F7F4FCE0183960E9456038C
:1019E000CE0101960E945103CE0147960E945103F9
:1019F000CE0141960E945103CE014D960E945103A3
:101A00006BA17CA18AEE93E00E947604CE018396BE
:101A10000E9451030E947B0661E573E0CE0141966E
:101A20000E94700360E172E08091B3059091B4056B
:101A30000E94760462E370E080E090E00E94E40699
:101A40008091B3059091B405DC01ED91FC91008487
:101A5000F185E02D0995181619060CF04FC260911A
:101A6000B3057091B405CE0101960E949606BE01A1
:101A70006F5F7F4FCE0141960E948E02CE0101968C
:101A80000E94510364E971E0CE0101960E94700347
:101A9000BE016F5F7F4FCE0141960E9474028C01A0
:101AA000CE0101960E9451030F3F1F4F49F264E699
:101AB00070E080E090E00E94E406CE0141960E9432
:101AC0005103FF2009F41FC26AE372E08AEE93E03B
:101AD0000E94760407C069E672E08AEE93E00E94F5
:101AE0007604F12CCE018F5B9F4F0E945103CE01F3
:101AF000CB960E945103F110A4C060E972E08AEE17
:101B000093E00E947604FFCF8091B3059091B405D5
:101B1000DC01ED91FC910284F385E02D0995882389
:101B200029F0682FCE014D960E94EE028091B305F8
:101B30009091B405DC01ED91FC910084F185E02DDC
:101B400009951816190604F3BE016F5F7F4FCE0189
:101B50004D960E947402019609F4F4C0BE01635EC2
:101B60007F4FCE0183960E948E02CE014D960E9439
:101B70005103CE0101960E945103CE0141960E946D
:101B80005103CE0147960E94510364E971E0CE01F2
:101B900041960E947003BE016F5E7F4FCE01839617
:101BA0000E947402019609F0E1C06CED72E0CE0172
:101BB00001960E947003BE016F5F7F4FCE01839636
:101BC0000E94740211E0019609F410E0CE01019622
:101BD0000E945103CE0141960E945103CE0183968B
:101BE0000E945103CE0189960E945103CE018F9627
:101BF0000E945103CE01C5960E9451031111B8C035
:101C000088E790E00E94D40660EA7FE080E090E000
:101C10000E94E4066AE573E08AEE93E00E9476048F
:101C20002AE04CE251E060E070E08AEE93E00E942E
:101C30002D046FE473E08AEE93E00E9418040E9482
:101C4000A80167EB72E0CE01C5960E947003BE0149
:101C50006B5C7F4FCE018F960E94560363EC72E05F
:101C6000CE0189960E94700361E573E0CE018396F0
:101C70000E9470030E947B0667EC72E08091B305BE
:101C80009091B4050E948A04BE01675D7F4F8091E8
:101C9000B3059091B4050E940A0465ED72E080914D
:101CA000B3059091B4050E948A04BE01615D7F4F27
:101CB0008091B3059091B4050E940A0469ED72E029
:101CC0008091B3059091B4050E948A040091B305F8
:101CD0001091B4052AE042E853E260E070E0C801E8
:101CE0000E942D046FE473E0C8010E9418046CED9B
:101CF00072E0CE0147960E9470036CEE72E0CE0156
:101D000041960E94700364E971E0CE0101960E9441
:101D1000700361E573E0CE014D960E9470030E944E
:101D20001E074B015C010E941E07DC01CB018819D4
:101D30009909AA09BB09843F9140A105B10508F49E
:101D4000F5CE0CCFBE016F5E7F4FCE014D960E9447
:101D50007402019609F002CFBE01695E7F4FCE0189
:101D60004D960E9474020196F1F2F8CE1F2D32CFEB
:101D700084E990E00E94D4060E947B0662EF72E044
:101D80008091B3059091B4050E948A040091B30537
:101D90001091B4052AE041E550E060E070E0C80130
:101DA0000E942D046FE473E0C8010E9418046EEFD6
:101DB00072E0CE0101960E94700344EF51E060E0B2
:101DC00070E0CE0101960E94EB07182FCE0101961C
:101DD0000E9451031123F9F00E947B0660E073E03A
:101DE0008091B3059091B4050E948A0462E573E086
:101DF000CE0101960E94700344EF51E060E070E074
:101E0000CE0101960E94EB07182FCE0101960E9489
:101E10005103111104C08BE890E00E94B3060E94A8
:101E20001E072B013C01A12CB12C0E941E07DC01D6
:101E3000CB0184199509A609B709843F9140A105F2
:101E4000B105D8F5850158018091B3059091B4058D
:101E5000DC01ED91FC910084F185E02D09951816C7
:101E60001906B4F40C32B1E01B07A9F08091B30558
:101E70009091B405DC01ED91FC910284F385E02D95
:101E80000995F801E957FB4F80830F5F1F4FDBCFA8
:101E90000C32114051F68091B3059091B405DC01EC
:101EA000ED91FC910084F185E02D0995892B09F4D1
:101EB000BCCF88E690E00E94D40667E874E08AEE22
:101EC00093E00E947604A0CEB801CE0101960E9454
:101ED000C7028823D9F029813A818D819E81B5017D
:101EE000820F931F0E9482131E830D8372CD69EFB0
:101EF00071E0CE0183960E9470037ECDF12CDDCD82
:101F00006CE172E0EACD69E472E0E0CDCE010196C9
:101F10000E941E035ECD8CE291E09093B605809303
:101F2000B50585EB95E00E94580284ED95E00C9490
:101F30005103CF92DF92EF92FF92CF93DF931092F3
:101F4000ED031092EC0368EEC62E63E0D62EE12C72
:101F5000F12CC092EE03D092EF03E092F003F092E6
:101F6000F1038AE191E09093EB038093EA0385EC1F
:101F700090E09093F7038093F60384EC90E09093C5
:101F8000F9038093F80380EC90E09093FB03809337
:101F9000FA0381EC90E09093FD038093FC0382ECC4
:101FA00090E09093FF038093FE0386EC90E0909383
:101FB0000104809300041092030410920404109210
:101FC00005041092060467E973E084ED95E00E9431
:101FD00070031092B8051092B705C092B905D0925F
:101FE000BA05E092BB05F092BC058CE291E09093BB
:101FF000B6058093B5051092CC051092CB051092D2
:10200000CE051092CD051092D0051092CF051092FA
:10201000D2051092D1056091D3056E7F6D7F6093DC
:10202000D3056695617081E068278BE00E940A06FF
:10203000E5EFF0E02491E1EEF0E08491882399F05F
:1020400090E0880F991FFC01EE53FF4FA591B491CA
:10205000FC01E854FF4F859194918FB7F894EC916F
:10206000E22BEC938FBFE5EFF0E0E491E093C50540
:10207000E1EEF0E0E491F0E0EE0FFF1FE854FF4FD7
:10208000859194919093C7058093C605E4EFF0E0A5
:102090002491E0EEF0E084918823C1F090E0880F75
:1020A000991FFC01EE53FF4FC591D491FC01E854F8
:1020B000FF4FA591B4919FB7F8948881E22FE095E6
:1020C0008E2388838C91E823EC939FBF8091D30566
:1020D00081FD04C061E08AE00E940A068AE08093E4
:1020E000C105E4EFF0E0E491E093C205E0EEF0E03A
:1020F000E491F0E0EE0FFF1FE453FF4F85919491C0
:102100009093C4058093C305E7E8F4E08CE291E086
:10211000DF019C011D9221503040E1F785EB95E0F5
:102120009093B4058093B305DF91CF91FF90EF902A
:10213000DF90CF9008951F93FC0199278827BC0159
:10214000E89411911032E9F3193010F01E30C8F301
:102150001B3251F01D3249F4689406C00E94C2102F
:10216000610F711D811D911D119110531A30B0F333
:102170003EF490958095709561957F4F8F4F9F4F5E
:102180001F910895592F482F372F262F660F771F3D
:10219000881F991F660F771F881F991F620F731F73
:1021A000841F951F660F771F881F991F08952F9210
:1021B0003F924F925F926F927F928F929F92AF92D7
:1021C000BF92CF92DF92EF92FF920F931F93CF9324
:1021D000DF93CDB7DEB7CA1BDB0B0FB6F894DEBFBB
:1021E0000FBECDBF09942A88398848885F846E84E1
:1021F0007D848C849B84AA84B984C884DF80EE802B
:10220000FD800C811B81AA81B981CE0FD11D0FB633
:10221000F894DEBF0FBECDBFED01089597FB072EEA
:1022200016F4009407D077FD09D00E94631107FCD3
:1022300005D03EF4909581959F4F089570956195D6
:102240007F4F0895A1E21A2EAA1BBB1BFD010DC0F2
:10225000AA1FBB1FEE1FFF1FA217B307E407F50756
:1022600020F0A21BB30BE40BF50B661F771F881F32
:10227000991F1A9469F760957095809590959B01C8
:10228000AC01BD01CF010895052E97FB1EF400940B
:102290000E945B1157FD07D00E94221107FC03D05A
:1022A0004EF40C945B1150954095309521953F4F1D
:1022B0004F4F5F4F089590958095709561957F4F32
:1022C0008F4F9F4F0895AA1BBB1B51E107C0AA1F48
:1022D000BB1FA617B70710F0A61BB70B881F991FC7
:1022E0005A95A9F780959095BC01CD010895EE0F00
:1022F000FF1F0590F491E02D0994CF93DF93823076
:10230000910510F482E090E0E091E505F091E6059A
:1023100020E030E0C0E0D0E0309711F14081518101
:1023200048175907C0F04817590761F48281938113
:10233000209719F09B838A832BC09093E6058093A6
:10234000E50526C02115310519F04217530718F489
:102350009A01BE01DF01EF010280F381E02DDCCFA5
:102360002115310509F1281B390B2430310590F472
:1023700012968D919C9113976115710521F0FB01C7
:102380009383828304C09093E6058093E505FD0165
:10239000329644C0FD01E20FF31F819391932250C6
:1023A00031092D933C933AC02091E3053091E40527
:1023B000232B41F420910201309103013093E40575
:1023C0002093E30520910001309101012115310591
:1023D00041F42DB73EB74091040150910501241BF3
:1023E000350BE091E305F091E405E217F307A0F463
:1023F0002E1B3F0B2817390778F0AC014E5F5F4F5B
:102400002417350748F04E0F5F1F5093E4054093A3
:10241000E3058193919302C0E0E0F0E0CF01DF910A
:10242000CF9108950F931F93CF93DF93009709F4F3
:102430008CC0FC013297138212820091E505109145
:10244000E6050115110581F420813181820F931F6A
:102450002091E3053091E4052817390779F5F093C9
:10246000E405E093E30571C0D80140E050E0AE1709
:10247000BF0750F412962D913C911397AD01211591
:10248000310509F1D901F3CF9D01DA0133832283AC
:1024900060817181860F971F8217930769F4EC01A1
:1024A00028813981260F371F2E5F3F4F31832083CC
:1024B0008A819B8193838283452B29F4F093E605DF
:1024C000E093E50542C01396FC93EE931297ED015D
:1024D000499159919E01240F351FE217F30771F4BA
:1024E00080819181840F951F029611969C938E9303
:1024F0008281938113969C938E931297E0E0F0E093
:10250000D80112968D919C911397009719F0F801BC
:102510008C01F6CF8D919C9198012E5F3F4F820FD9
:10252000931F2091E3053091E4052817390769F4DA
:10253000309729F41092E6051092E50502C0138247
:1025400012821093E4050093E305DF91CF911F9170
:102550000F910895A0E0B0E0E0EBF2E10C94DB1005
:10256000EC01009721F4CB010E947D11B8C0FC0161
:10257000E60FF71F9C0122503109E217F30708F418
:10258000ACC0D9010D911C91119706171707B0F037
:102590000530110508F49FC0C801049786179707F6
:1025A00008F499C002501109061B170B01931193EF
:1025B0006D937C93CF010E9412128DC05B01A01A13
:1025C000B10A4C01800E911EA091E505B091E6057F
:1025D00040E050E0E12CF12C109709F44AC0A81516
:1025E000B905D1F56D907C901197630182E0C80E1A
:1025F000D11CCA14DB0480F1A3014A195B096A01EA
:1026000082E0C80ED11C1296BC9012971396AC9122
:10261000B5E0CB16D10440F0B282A383518340834E
:10262000D9016D937C930AC00E5F1F4FC301800FC9
:10263000911FF90191838083EB2DFA2FE114F104AE
:1026400031F0D7011396FC93EE93129744C0F093A8
:10265000E605E093E5053FC08D919C9111974817E1
:10266000590708F4AC017D0112960D90BC91A02D84
:10267000B3CF8091E3059091E40588159905E1F4C5
:1026800046175707C8F48091000190910101009707
:1026900041F48DB79EB74091040150910501841B10
:1026A000950BE817F907C8F4F093E405E093E30508
:1026B000F901718360830FC0CB010E947D117C0101
:1026C000009759F0A801BE010E947913CE010E9423
:1026D0001212C70104C0CE0102C080E090E0CDB765
:1026E000DEB7EEE00C94F71081E090E0F8940C94E3
:1026F000A313FB01DC0102C001900D924150504038
:10270000D8F70895FB01DC0101900D920020E1F75C
:102710000895FB0151915523A9F0BF01DC014D91B2
:1027200045174111E1F759F4CD010190002049F01E
:102730004D9140154111C9F3FB014111EFCF81E0EB
:1027400090E00197089510E0C0E8D0E004C0FE01D9
:102750000E9477112196C138D107C9F7F894FFCFAD
:102760000000E705800080250000004B000000E12C
:10277000000000C20100000000003F01AC00D700D3
:1027800086010801E600FA0000000000CB01AC0061
:102790006F02CA011F023702B201426567696E000B
:1027A000494E4E424F58323630393030303631375C
:1027B0000048312054656C656B6F6D206563616402
:1027C0000041540041542B43494F424155443D0080
:1027D00042617564726174652073657420737563FA
:1027E000636573730041542B43574D4F44453F007D
:1027F0000D0A0D0A4F4B002B43574D4F44453A00ED
:1028000041542B43574D4F44453D006E6F20636844
:10281000616E67650041542B5253540042617564E8
:102820007261746520736574206661696C6564000B
:102830004A6F696E696E67204150207375636365E6
:10284000737366756C2C200041542B4349465352D8
:102850000049500049503A2000436F756C646E2760
:102860007420676574204950206164726573730039
:1028700041542B4349504D55583D30004A6F696EC5
:10288000204150206661696C7572652C2052657319
:10289000657420426F617264210053696E676C65D4
:1028A000204D6F6465204F4B0053696E676C652047
:1028B0004D6F6465204572726F722C20526573658E
:1028C0007420426F617264210053746174696F6E89
:1028D000202B20736F66744150202D204572726F3B
:1028E000722C20526573657420426F6172642100FE
:1028F0005769666920496E6974206661696C656410
:102900002E20436865636B20636F6E66696775721E
:102910006174696F6E2E003139322E3136382E31A6
:102920002E37005443500041542B434950535441D7
:1029300052543D2200222C2200222C00414C5245B0
:1029400041445920434F4E4E454354004552524F47
:10295000520041542B43495053454E443D003E00E4
:10296000474554202F626D6C696B6F74612F696EDF
:102970006465782E7868746D6C20485454502F31FB
:102980002E310D0A486F73743A203139322E3136A8
:10299000382E312E373A393039300D0A436F6E6E8A
:1029A000656374696F6E3A20636C6F73650D0A0D11
:1029B0000A0053454E44204F4B0045434C32202DD6
:1029C000205A617672C5A1696F2064656C617921B6
:1029D0000053746174696F6E202B20736F667441AD
:1029E00050202D204F4B0041542B43574A41503D1E
:1029F00022004641494C007777772E676F6F676CEE
:062A0000652E636F6D00FE
:00000001FF
